{
  "contractName": "CrowdsaleContract",
  "abi": [
    {
      "inputs": [
        {
          "internalType": "uint256",
          "name": "rate_",
          "type": "uint256"
        },
        {
          "internalType": "address",
          "name": "wallet_",
          "type": "address"
        },
        {
          "internalType": "contract IERC20",
          "name": "token_",
          "type": "address"
        },
        {
          "internalType": "contract IERC1363",
          "name": "acceptedToken_",
          "type": "address"
        }
      ],
      "stateMutability": "nonpayable",
      "type": "constructor"
    },
    {
      "anonymous": false,
      "inputs": [
        {
          "indexed": true,
          "internalType": "address",
          "name": "previousOwner",
          "type": "address"
        },
        {
          "indexed": true,
          "internalType": "address",
          "name": "newOwner",
          "type": "address"
        }
      ],
      "name": "OwnershipTransferred",
      "type": "event"
    },
    {
      "anonymous": false,
      "inputs": [
        {
          "indexed": true,
          "internalType": "address",
          "name": "sender",
          "type": "address"
        },
        {
          "indexed": false,
          "internalType": "uint256",
          "name": "amount",
          "type": "uint256"
        },
        {
          "indexed": false,
          "internalType": "bytes",
          "name": "data",
          "type": "bytes"
        }
      ],
      "name": "TokensApproved",
      "type": "event"
    },
    {
      "anonymous": false,
      "inputs": [
        {
          "indexed": true,
          "internalType": "address",
          "name": "operator",
          "type": "address"
        },
        {
          "indexed": true,
          "internalType": "address",
          "name": "beneficiary",
          "type": "address"
        },
        {
          "indexed": false,
          "internalType": "uint256",
          "name": "value",
          "type": "uint256"
        },
        {
          "indexed": false,
          "internalType": "uint256",
          "name": "amount",
          "type": "uint256"
        }
      ],
      "name": "TokensPurchased",
      "type": "event"
    },
    {
      "anonymous": false,
      "inputs": [
        {
          "indexed": true,
          "internalType": "address",
          "name": "operator",
          "type": "address"
        },
        {
          "indexed": true,
          "internalType": "address",
          "name": "sender",
          "type": "address"
        },
        {
          "indexed": false,
          "internalType": "uint256",
          "name": "amount",
          "type": "uint256"
        },
        {
          "indexed": false,
          "internalType": "bytes",
          "name": "data",
          "type": "bytes"
        }
      ],
      "name": "TokensReceived",
      "type": "event"
    },
    {
      "inputs": [],
      "name": "acceptedToken",
      "outputs": [
        {
          "internalType": "contract IERC1363",
          "name": "",
          "type": "address"
        }
      ],
      "stateMutability": "view",
      "type": "function"
    },
    {
      "inputs": [
        {
          "internalType": "address",
          "name": "sender",
          "type": "address"
        },
        {
          "internalType": "uint256",
          "name": "amount",
          "type": "uint256"
        },
        {
          "internalType": "bytes",
          "name": "data",
          "type": "bytes"
        }
      ],
      "name": "onApprovalReceived",
      "outputs": [
        {
          "internalType": "bytes4",
          "name": "",
          "type": "bytes4"
        }
      ],
      "stateMutability": "nonpayable",
      "type": "function"
    },
    {
      "inputs": [
        {
          "internalType": "address",
          "name": "operator",
          "type": "address"
        },
        {
          "internalType": "address",
          "name": "sender",
          "type": "address"
        },
        {
          "internalType": "uint256",
          "name": "amount",
          "type": "uint256"
        },
        {
          "internalType": "bytes",
          "name": "data",
          "type": "bytes"
        }
      ],
      "name": "onTransferReceived",
      "outputs": [
        {
          "internalType": "bytes4",
          "name": "",
          "type": "bytes4"
        }
      ],
      "stateMutability": "nonpayable",
      "type": "function"
    },
    {
      "inputs": [],
      "name": "owner",
      "outputs": [
        {
          "internalType": "address",
          "name": "",
          "type": "address"
        }
      ],
      "stateMutability": "view",
      "type": "function"
    },
    {
      "inputs": [],
      "name": "renounceOwnership",
      "outputs": [],
      "stateMutability": "nonpayable",
      "type": "function"
    },
    {
      "inputs": [
        {
          "internalType": "bytes4",
          "name": "interfaceId",
          "type": "bytes4"
        }
      ],
      "name": "supportsInterface",
      "outputs": [
        {
          "internalType": "bool",
          "name": "",
          "type": "bool"
        }
      ],
      "stateMutability": "view",
      "type": "function"
    },
    {
      "inputs": [
        {
          "internalType": "address",
          "name": "newOwner",
          "type": "address"
        }
      ],
      "name": "transferOwnership",
      "outputs": [],
      "stateMutability": "nonpayable",
      "type": "function"
    },
    {
      "inputs": [],
      "name": "token",
      "outputs": [
        {
          "internalType": "contract IERC20",
          "name": "",
          "type": "address"
        }
      ],
      "stateMutability": "view",
      "type": "function"
    },
    {
      "inputs": [],
      "name": "wallet",
      "outputs": [
        {
          "internalType": "address",
          "name": "",
          "type": "address"
        }
      ],
      "stateMutability": "view",
      "type": "function"
    },
    {
      "inputs": [],
      "name": "rate",
      "outputs": [
        {
          "internalType": "uint256",
          "name": "",
          "type": "uint256"
        }
      ],
      "stateMutability": "view",
      "type": "function"
    },
    {
      "inputs": [],
      "name": "tokenRaised",
      "outputs": [
        {
          "internalType": "uint256",
          "name": "",
          "type": "uint256"
        }
      ],
      "stateMutability": "view",
      "type": "function"
    }
  ],
  "bytecode": "0x60806040523480156200001157600080fd5b50604051620020b4380380620020b4833981810160405281019062000037919062000450565b80600073ffffffffffffffffffffffffffffffffffffffff168173ffffffffffffffffffffffffffffffffffffffff161415620000ab576040517f08c379a0000000000000000000000000000000000000000000000000000000008152600401620000a29062000511565b60405180910390fd5b8073ffffffffffffffffffffffffffffffffffffffff166301ffc9a77fb0202a11000000000000000000000000000000000000000000000000000000006040518263ffffffff1660e01b8152600401620001069190620004f4565b60206040518083038186803b1580156200011f57600080fd5b505afa15801562000134573d6000803e3d6000fd5b505050506040513d601f19601f820116820180604052508101906200015a919062000424565b6200016457600080fd5b806000806101000a81548173ffffffffffffffffffffffffffffffffffffffff021916908373ffffffffffffffffffffffffffffffffffffffff1602179055505060018081905550620001cc620001c0620002e360201b60201c565b620002eb60201b60201c565b60008411620001da57600080fd5b600073ffffffffffffffffffffffffffffffffffffffff168373ffffffffffffffffffffffffffffffffffffffff1614156200021557600080fd5b600073ffffffffffffffffffffffffffffffffffffffff168273ffffffffffffffffffffffffffffffffffffffff1614156200025057600080fd5b8360058190555082600460006101000a81548173ffffffffffffffffffffffffffffffffffffffff021916908373ffffffffffffffffffffffffffffffffffffffff16021790555081600360006101000a81548173ffffffffffffffffffffffffffffffffffffffff021916908373ffffffffffffffffffffffffffffffffffffffff16021790555050505050620006b3565b600033905090565b6000600260009054906101000a900473ffffffffffffffffffffffffffffffffffffffff16905081600260006101000a81548173ffffffffffffffffffffffffffffffffffffffff021916908373ffffffffffffffffffffffffffffffffffffffff1602179055508173ffffffffffffffffffffffffffffffffffffffff168173ffffffffffffffffffffffffffffffffffffffff167f8be0079c531659141344cd1fd0a4f28419497f9722a3daafe3b4186f6b6457e060405160405180910390a35050565b600081519050620003c28162000631565b92915050565b600081519050620003d9816200064b565b92915050565b600081519050620003f08162000665565b92915050565b60008151905062000407816200067f565b92915050565b6000815190506200041e8162000699565b92915050565b6000602082840312156200043757600080fd5b60006200044784828501620003c8565b91505092915050565b600080600080608085870312156200046757600080fd5b600062000477878288016200040d565b94505060206200048a87828801620003b1565b93505060406200049d87828801620003f6565b9250506060620004b087828801620003df565b91505092959194509250565b620004c78162000564565b82525050565b6000620004dc602d8362000533565b9150620004e982620005e2565b604082019050919050565b60006020820190506200050b6000830184620004bc565b92915050565b600060208201905081810360008301526200052c81620004cd565b9050919050565b600082825260208201905092915050565b60006200055182620005b8565b9050919050565b60008115159050919050565b60007fffffffff0000000000000000000000000000000000000000000000000000000082169050919050565b60006200059d8262000544565b9050919050565b6000620005b18262000544565b9050919050565b600073ffffffffffffffffffffffffffffffffffffffff82169050919050565b6000819050919050565b7f4552433133363350617961626c653a206163636570746564546f6b656e20697360008201527f207a65726f206164647265737300000000000000000000000000000000000000602082015250565b6200063c8162000544565b81146200064857600080fd5b50565b620006568162000558565b81146200066257600080fd5b50565b620006708162000590565b81146200067c57600080fd5b50565b6200068a81620005a4565b81146200069657600080fd5b50565b620006a481620005d8565b8114620006b057600080fd5b50565b6119f180620006c36000396000f3fe608060405234801561001057600080fd5b50600436106100a95760003560e01c8063715018a611610071578063715018a6146101565780637b04a2d01461016057806388a7ca5c146101905780638da5cb5b146101c0578063f2fde38b146101de578063fc0c546a146101fa576100a9565b806301ffc9a7146100ae57806326a21575146100de5780632c4e722e146100fc578063451c3d801461011a578063521eb27314610138575b600080fd5b6100c860048036038101906100c39190611032565b610218565b6040516100d591906112df565b60405180910390f35b6100e66102fa565b6040516100f3919061144d565b60405180910390f35b610104610304565b604051610111919061144d565b60405180910390f35b61012261030e565b60405161012f9190611315565b60405180910390f35b610140610337565b60405161014d9190611264565b60405180910390f35b61015e610361565b005b61017a60048036038101906101759190610fa2565b6103e9565b60405161018791906112fa565b60405180910390f35b6101aa60048036038101906101a59190610f27565b6104ed565b6040516101b791906112fa565b60405180910390f35b6101c861060a565b6040516101d59190611264565b60405180910390f35b6101f860048036038101906101f39190610efe565b610634565b005b61020261072c565b60405161020f9190611330565b60405180910390f35b60007f88a7ca5c000000000000000000000000000000000000000000000000000000007bffffffffffffffffffffffffffffffffffffffffffffffffffffffff1916827bffffffffffffffffffffffffffffffffffffffffffffffffffffffff191614806102e357507f7b04a2d0000000000000000000000000000000000000000000000000000000007bffffffffffffffffffffffffffffffffffffffffffffffffffffffff1916827bffffffffffffffffffffffffffffffffffffffffffffffffffffffff1916145b806102f357506102f282610756565b5b9050919050565b6000600654905090565b6000600554905090565b60008060009054906101000a900473ffffffffffffffffffffffffffffffffffffffff16905090565b6000600460009054906101000a900473ffffffffffffffffffffffffffffffffffffffff16905090565b6103696107c0565b73ffffffffffffffffffffffffffffffffffffffff1661038761060a565b73ffffffffffffffffffffffffffffffffffffffff16146103dd576040517f08c379a00000000000000000000000000000000000000000000000000000000081526004016103d4906113cd565b60405180910390fd5b6103e760006107c8565b565b60008060009054906101000a900473ffffffffffffffffffffffffffffffffffffffff1673ffffffffffffffffffffffffffffffffffffffff1661042b6107c0565b73ffffffffffffffffffffffffffffffffffffffff1614610481576040517f08c379a0000000000000000000000000000000000000000000000000000000008152600401610478906113ad565b60405180910390fd5b8373ffffffffffffffffffffffffffffffffffffffff167ffc47604465ac19edea172256bab2469184c3a6770701541635cf84241c2f24b484846040516104c9929190611468565b60405180910390a26104dc84848461088e565b637b04a2d060e01b90509392505050565b60008060009054906101000a900473ffffffffffffffffffffffffffffffffffffffff1673ffffffffffffffffffffffffffffffffffffffff1661052f6107c0565b73ffffffffffffffffffffffffffffffffffffffff1614610585576040517f08c379a000000000000000000000000000000000000000000000000000000000815260040161057c906113ad565b60405180910390fd5b8373ffffffffffffffffffffffffffffffffffffffff168573ffffffffffffffffffffffffffffffffffffffff167f01db5e58326b109682dc160b2e51aa7bf7e8d8ccf74bc242a3c502179378905585856040516105e4929190611468565b60405180910390a36105f885858585610936565b6388a7ca5c60e01b9050949350505050565b6000600260009054906101000a900473ffffffffffffffffffffffffffffffffffffffff16905090565b61063c6107c0565b73ffffffffffffffffffffffffffffffffffffffff1661065a61060a565b73ffffffffffffffffffffffffffffffffffffffff16146106b0576040517f08c379a00000000000000000000000000000000000000000000000000000000081526004016106a7906113cd565b60405180910390fd5b600073ffffffffffffffffffffffffffffffffffffffff168173ffffffffffffffffffffffffffffffffffffffff161415610720576040517f08c379a00000000000000000000000000000000000000000000000000000000081526004016107179061136d565b60405180910390fd5b610729816107c8565b50565b6000600360009054906101000a900473ffffffffffffffffffffffffffffffffffffffff16905090565b60007f01ffc9a7000000000000000000000000000000000000000000000000000000007bffffffffffffffffffffffffffffffffffffffffffffffffffffffff1916827bffffffffffffffffffffffffffffffffffffffffffffffffffffffff1916149050919050565b600033905090565b6000600260009054906101000a900473ffffffffffffffffffffffffffffffffffffffff16905081600260006101000a81548173ffffffffffffffffffffffffffffffffffffffff021916908373ffffffffffffffffffffffffffffffffffffffff1602179055508173ffffffffffffffffffffffffffffffffffffffff168173ffffffffffffffffffffffffffffffffffffffff167f8be0079c531659141344cd1fd0a4f28419497f9722a3daafe3b4186f6b6457e060405160405180910390a35050565b61089661030e565b73ffffffffffffffffffffffffffffffffffffffff166323b872dd8430856040518463ffffffff1660e01b81526004016108d29392919061127f565b602060405180830381600087803b1580156108ec57600080fd5b505af1158015610900573d6000803e3d6000fd5b505050506040513d601f19601f820116820180604052508101906109249190611009565b5061093183848484610948565b505050565b61094284848484610948565b50505050565b6002600154141561098e576040517f08c379a00000000000000000000000000000000000000000000000000000000081526004016109859061142d565b60405180910390fd5b600260018190555060008290506109a481610a68565b60006109af82610a79565b905081600660008282546109c3919061155a565b925050819055506109d48582610a90565b8473ffffffffffffffffffffffffffffffffffffffff168673ffffffffffffffffffffffffffffffffffffffff167f6faf93231a456e552dbc9961f58d9713ee4f2e69d15f1975b050ef0911053a7b8484604051610a33929190611498565b60405180910390a3610a46858385610a9e565b610a4f82610aa3565b610a598583610afa565b50506001808190555050505050565b6000811415610a7657600080fd5b50565b600060055482610a8991906115b0565b9050919050565b610a9a8282610afe565b5050565b505050565b610af7600460009054906101000a900473ffffffffffffffffffffffffffffffffffffffff1682610ad261030e565b73ffffffffffffffffffffffffffffffffffffffff16610b4f9092919063ffffffff16565b50565b5050565b610b4b8282600360009054906101000a900473ffffffffffffffffffffffffffffffffffffffff1673ffffffffffffffffffffffffffffffffffffffff16610b4f9092919063ffffffff16565b5050565b610bd08363a9059cbb60e01b8484604051602401610b6e9291906112b6565b604051602081830303815290604052907bffffffffffffffffffffffffffffffffffffffffffffffffffffffff19166020820180517bffffffffffffffffffffffffffffffffffffffffffffffffffffffff8381831617835250505050610bd5565b505050565b6000610c37826040518060400160405280602081526020017f5361666545524332303a206c6f772d6c6576656c2063616c6c206661696c65648152508573ffffffffffffffffffffffffffffffffffffffff16610c9c9092919063ffffffff16565b9050600081511115610c975780806020019051810190610c579190611009565b610c96576040517f08c379a0000000000000000000000000000000000000000000000000000000008152600401610c8d9061140d565b60405180910390fd5b5b505050565b6060610cab8484600085610cb4565b90509392505050565b606082471015610cf9576040517f08c379a0000000000000000000000000000000000000000000000000000000008152600401610cf09061138d565b60405180910390fd5b610d0285610dc8565b610d41576040517f08c379a0000000000000000000000000000000000000000000000000000000008152600401610d38906113ed565b60405180910390fd5b6000808673ffffffffffffffffffffffffffffffffffffffff168587604051610d6a919061124d565b60006040518083038185875af1925050503d8060008114610da7576040519150601f19603f3d011682016040523d82523d6000602084013e610dac565b606091505b5091509150610dbc828286610ddb565b92505050949350505050565b600080823b905060008111915050919050565b60608315610deb57829050610e3b565b600083511115610dfe5782518084602001fd5b816040517f08c379a0000000000000000000000000000000000000000000000000000000008152600401610e32919061134b565b60405180910390fd5b9392505050565b6000610e55610e50846114e6565b6114c1565b905082815260208101848484011115610e6d57600080fd5b610e788482856116c6565b509392505050565b600081359050610e8f8161195f565b92915050565b600081519050610ea481611976565b92915050565b600081359050610eb98161198d565b92915050565b600082601f830112610ed057600080fd5b8135610ee0848260208601610e42565b91505092915050565b600081359050610ef8816119a4565b92915050565b600060208284031215610f1057600080fd5b6000610f1e84828501610e80565b91505092915050565b60008060008060808587031215610f3d57600080fd5b6000610f4b87828801610e80565b9450506020610f5c87828801610e80565b9350506040610f6d87828801610ee9565b925050606085013567ffffffffffffffff811115610f8a57600080fd5b610f9687828801610ebf565b91505092959194509250565b600080600060608486031215610fb757600080fd5b6000610fc586828701610e80565b9350506020610fd686828701610ee9565b925050604084013567ffffffffffffffff811115610ff357600080fd5b610fff86828701610ebf565b9150509250925092565b60006020828403121561101b57600080fd5b600061102984828501610e95565b91505092915050565b60006020828403121561104457600080fd5b600061105284828501610eaa565b91505092915050565b6110648161160a565b82525050565b6110738161161c565b82525050565b61108281611628565b82525050565b600061109382611517565b61109d818561152d565b93506110ad8185602086016116d5565b6110b681611797565b840191505092915050565b60006110cc82611517565b6110d6818561153e565b93506110e68185602086016116d5565b80840191505092915050565b6110fb8161167e565b82525050565b61110a816116a2565b82525050565b600061111b82611522565b6111258185611549565b93506111358185602086016116d5565b61113e81611797565b840191505092915050565b6000611156602683611549565b9150611161826117a8565b604082019050919050565b6000611179602683611549565b9150611184826117f7565b604082019050919050565b600061119c603383611549565b91506111a782611846565b604082019050919050565b60006111bf602083611549565b91506111ca82611895565b602082019050919050565b60006111e2601d83611549565b91506111ed826118be565b602082019050919050565b6000611205602a83611549565b9150611210826118e7565b604082019050919050565b6000611228601f83611549565b915061123382611936565b602082019050919050565b61124781611674565b82525050565b600061125982846110c1565b915081905092915050565b6000602082019050611279600083018461105b565b92915050565b6000606082019050611294600083018661105b565b6112a1602083018561105b565b6112ae604083018461123e565b949350505050565b60006040820190506112cb600083018561105b565b6112d8602083018461123e565b9392505050565b60006020820190506112f4600083018461106a565b92915050565b600060208201905061130f6000830184611079565b92915050565b600060208201905061132a60008301846110f2565b92915050565b60006020820190506113456000830184611101565b92915050565b600060208201905081810360008301526113658184611110565b905092915050565b6000602082019050818103600083015261138681611149565b9050919050565b600060208201905081810360008301526113a68161116c565b9050919050565b600060208201905081810360008301526113c68161118f565b9050919050565b600060208201905081810360008301526113e6816111b2565b9050919050565b60006020820190508181036000830152611406816111d5565b9050919050565b60006020820190508181036000830152611426816111f8565b9050919050565b600060208201905081810360008301526114468161121b565b9050919050565b6000602082019050611462600083018461123e565b92915050565b600060408201905061147d600083018561123e565b818103602083015261148f8184611088565b90509392505050565b60006040820190506114ad600083018561123e565b6114ba602083018461123e565b9392505050565b60006114cb6114dc565b90506114d78282611708565b919050565b6000604051905090565b600067ffffffffffffffff82111561150157611500611768565b5b61150a82611797565b9050602081019050919050565b600081519050919050565b600081519050919050565b600082825260208201905092915050565b600081905092915050565b600082825260208201905092915050565b600061156582611674565b915061157083611674565b9250827fffffffffffffffffffffffffffffffffffffffffffffffffffffffffffffffff038211156115a5576115a4611739565b5b828201905092915050565b60006115bb82611674565b91506115c683611674565b9250817fffffffffffffffffffffffffffffffffffffffffffffffffffffffffffffffff04831182151516156115ff576115fe611739565b5b828202905092915050565b600061161582611654565b9050919050565b60008115159050919050565b60007fffffffff0000000000000000000000000000000000000000000000000000000082169050919050565b600073ffffffffffffffffffffffffffffffffffffffff82169050919050565b6000819050919050565b600061168982611690565b9050919050565b600061169b82611654565b9050919050565b60006116ad826116b4565b9050919050565b60006116bf82611654565b9050919050565b82818337600083830152505050565b60005b838110156116f35780820151818401526020810190506116d8565b83811115611702576000848401525b50505050565b61171182611797565b810181811067ffffffffffffffff821117156117305761172f611768565b5b80604052505050565b7f4e487b7100000000000000000000000000000000000000000000000000000000600052601160045260246000fd5b7f4e487b7100000000000000000000000000000000000000000000000000000000600052604160045260246000fd5b6000601f19601f8301169050919050565b7f4f776e61626c653a206e6577206f776e657220697320746865207a65726f206160008201527f6464726573730000000000000000000000000000000000000000000000000000602082015250565b7f416464726573733a20696e73756666696369656e742062616c616e636520666f60008201527f722063616c6c0000000000000000000000000000000000000000000000000000602082015250565b7f4552433133363350617961626c653a206163636570746564546f6b656e20697360008201527f206e6f74206d6573736167652073656e64657200000000000000000000000000602082015250565b7f4f776e61626c653a2063616c6c6572206973206e6f7420746865206f776e6572600082015250565b7f416464726573733a2063616c6c20746f206e6f6e2d636f6e7472616374000000600082015250565b7f5361666545524332303a204552433230206f7065726174696f6e20646964206e60008201527f6f74207375636365656400000000000000000000000000000000000000000000602082015250565b7f5265656e7472616e637947756172643a207265656e7472616e742063616c6c00600082015250565b6119688161160a565b811461197357600080fd5b50565b61197f8161161c565b811461198a57600080fd5b50565b61199681611628565b81146119a157600080fd5b50565b6119ad81611674565b81146119b857600080fd5b5056fea26469706673582212209ecd0dfd194413b02a5123c9ef9943b26053c9225f918f1727578df372f59e3a64736f6c63430008040033",
  "immutableReferences": {},
  "source": "//SPDX-License-Identifier: Unlicense\n// Adapted from https://github.com/vittominacori/erc1363-payable-token/blob/master/contracts/examples/ERC1363PayableCrowdsale.sol\n\npragma solidity ^0.8.0;\n\nimport \"@openzeppelin/contracts/token/ERC20/utils/SafeERC20.sol\";\nimport \"@openzeppelin/contracts/security/ReentrancyGuard.sol\";\nimport \"erc-payable-token/contracts/payment/ERC1363Payable.sol\";\nimport \"@openzeppelin/contracts/access/Ownable.sol\";\n\ncontract CrowdsaleContract is ERC1363Payable, ReentrancyGuard, Ownable {\n    using SafeERC20 for IERC20;\n\n    // The token being sold\n    IERC20 private _token;\n\n    // Address where funds are collected\n    address private _wallet;\n\n    // How many token units a buyer gets per ERC1363 token\n    uint256 private _rate;\n\n    // Amount of ERC1363 token raised\n    uint256 private _tokenRaised;\n\n    /**\n     * Event for token purchase logging\n     * @param operator who called function\n     * @param beneficiary who got the tokens\n     * @param value ERC1363 tokens paid for purchase\n     * @param amount amount of tokens purchased\n     */\n    event TokensPurchased(\n        address indexed operator,\n        address indexed beneficiary,\n        uint256 value,\n        uint256 amount\n    );\n\n    constructor(\n        uint256 rate_,\n        address wallet_,\n        IERC20 token_,\n        IERC1363 acceptedToken_\n    ) ERC1363Payable(acceptedToken_) {\n        require(rate_ > 0);\n        require(wallet_ != address(0));\n        require(address(token_) != address(0));\n\n        _rate = rate_;\n        _wallet = wallet_;\n        _token = token_;\n    }\n\n    function token() public view returns (IERC20) {\n        return _token;\n    }\n\n    function wallet() public view returns (address) {\n        return _wallet;\n    }\n\n    function rate() public view returns (uint256) {\n        return _rate;\n    }\n\n    function tokenRaised() public view returns (uint256) {\n        return _tokenRaised;\n    }\n\n    function _transferReceived(\n        address operator,\n        address sender,\n        uint256 amount,\n        bytes memory data\n    ) internal override {\n        _buyTokens(operator, sender, amount, data);\n    }\n\n    function _approvalReceived(\n        address sender,\n        uint256 amount,\n        bytes memory data\n    ) internal override {\n        IERC20(acceptedToken()).transferFrom(sender, address(this), amount);\n        _buyTokens(sender, sender, amount, data);\n    }\n\n    function _buyTokens(\n        address operator,\n        address sender,\n        uint256 amount,\n        bytes memory data\n    ) internal nonReentrant {\n        uint256 sentTokenAmount = amount;\n        _preValidatePurchase(sentTokenAmount);\n\n        // calculate token amount to be created\n        uint256 tokens = _getTokenAmount(sentTokenAmount);\n\n        // update state\n        _tokenRaised += sentTokenAmount;\n\n        _processPurchase(sender, tokens);\n        emit TokensPurchased(operator, sender, sentTokenAmount, tokens);\n\n        _updatePurchasingState(sender, sentTokenAmount, data);\n\n        _forwardFunds(sentTokenAmount);\n        _postValidatePurchase(sender, sentTokenAmount);\n    }\n\n    function _preValidatePurchase(uint256 sentTokenAmount) internal pure {\n        require(sentTokenAmount != 0);\n    }\n\n    function _postValidatePurchase(address beneficiary, uint256 sentTokenAmount)\n        internal\n    {\n        // optional override\n    }\n\n    function _deliverTokens(address beneficiary, uint256 tokenAmount) internal {\n        _token.safeTransfer(beneficiary, tokenAmount);\n    }\n\n    function _processPurchase(address beneficiary, uint256 tokenAmount)\n        internal\n    {\n        _deliverTokens(beneficiary, tokenAmount);\n    }\n\n    function _updatePurchasingState(\n        address beneficiary,\n        uint256 sentTokenAmount,\n        bytes memory data\n    ) internal {\n        // optional override\n    }\n\n    function _getTokenAmount(uint256 sentTokenAmount)\n        internal\n        view\n        returns (uint256)\n    {\n        return sentTokenAmount * _rate;\n    }\n\n    function _forwardFunds(uint256 sentTokenAmount) internal {\n        IERC20(acceptedToken()).safeTransfer(_wallet, sentTokenAmount);\n    }\n}\n",
  "sourcePath": "/Users/thryec/Desktop/Klaytn/Dev/eip-testing-truffle/contracts/CrowdsaleContract.sol",
  "compiler": {
    "name": "solc",
    "version": "0.8.4+commit.c7e474f2.Emscripten.clang"
  },
  "schemaVersion": "3.3.3",
  "updatedAt": "2022-01-13T03:49:24.964Z",
  "networkType": "ethereum",
  "devdoc": {
    "events": {
      "TokensPurchased(address,address,uint256,uint256)": {
        "params": {
          "amount": "amount of tokens purchased",
          "beneficiary": "who got the tokens",
          "operator": "who called function",
          "value": "ERC1363 tokens paid for purchase"
        }
      }
    },
    "kind": "dev",
    "methods": {
      "acceptedToken()": {
        "details": "The ERC1363 token accepted"
      },
      "onApprovalReceived(address,uint256,bytes)": {
        "details": "Any ERC1363 smart contract calls this function on the recipient after an `approve`. This function MAY throw to revert and reject the approval. Return of other than the magic value MUST result in the transaction being reverted. Note: the token contract address is always the message sender.",
        "params": {
          "amount": "uint256 The amount of tokens to be spent",
          "data": "bytes Additional data with no specified format",
          "sender": "address The address which called `approveAndCall` function"
        },
        "returns": {
          "_0": "`bytes4(keccak256(\"onApprovalReceived(address,uint256,bytes)\"))` unless throwing"
        }
      },
      "onTransferReceived(address,address,uint256,bytes)": {
        "details": "Any ERC1363 smart contract calls this function on the recipient after a `transfer` or a `transferFrom`. This function MAY throw to revert and reject the transfer. Return of other than the magic value MUST result in the transaction being reverted. Note: the token contract address is always the message sender.",
        "params": {
          "amount": "uint256 The amount of tokens transferred",
          "data": "bytes Additional data with no specified format",
          "operator": "address The address which called `transferAndCall` or `transferFromAndCall` function",
          "sender": "address The address which are token transferred from"
        },
        "returns": {
          "_0": "`bytes4(keccak256(\"onTransferReceived(address,address,uint256,bytes)\"))` unless throwing"
        }
      },
      "owner()": {
        "details": "Returns the address of the current owner."
      },
      "renounceOwnership()": {
        "details": "Leaves the contract without owner. It will not be possible to call `onlyOwner` functions anymore. Can only be called by the current owner. NOTE: Renouncing ownership will leave the contract without an owner, thereby removing any functionality that is only available to the owner."
      },
      "supportsInterface(bytes4)": {
        "details": "See {IERC165-supportsInterface}."
      },
      "transferOwnership(address)": {
        "details": "Transfers ownership of the contract to a new account (`newOwner`). Can only be called by the current owner."
      }
    },
    "version": 1
  },
  "userdoc": {
    "events": {
      "TokensPurchased(address,address,uint256,uint256)": {
        "notice": "Event for token purchase logging"
      }
    },
    "kind": "user",
    "methods": {
      "onApprovalReceived(address,uint256,bytes)": {
        "notice": "Handle the approval of ERC1363 tokens"
      },
      "onTransferReceived(address,address,uint256,bytes)": {
        "notice": "Handle the receipt of ERC1363 tokens"
      }
    },
    "version": 1
  }
}