{
  "contractName": "ERC1363Payable",
  "abi": [
    {
      "inputs": [
        {
          "internalType": "contract IERC1363",
          "name": "acceptedToken_",
          "type": "address"
        }
      ],
      "stateMutability": "nonpayable",
      "type": "constructor"
    },
    {
      "anonymous": false,
      "inputs": [
        {
          "indexed": true,
          "internalType": "address",
          "name": "sender",
          "type": "address"
        },
        {
          "indexed": false,
          "internalType": "uint256",
          "name": "amount",
          "type": "uint256"
        },
        {
          "indexed": false,
          "internalType": "bytes",
          "name": "data",
          "type": "bytes"
        }
      ],
      "name": "TokensApproved",
      "type": "event"
    },
    {
      "anonymous": false,
      "inputs": [
        {
          "indexed": true,
          "internalType": "address",
          "name": "operator",
          "type": "address"
        },
        {
          "indexed": true,
          "internalType": "address",
          "name": "sender",
          "type": "address"
        },
        {
          "indexed": false,
          "internalType": "uint256",
          "name": "amount",
          "type": "uint256"
        },
        {
          "indexed": false,
          "internalType": "bytes",
          "name": "data",
          "type": "bytes"
        }
      ],
      "name": "TokensReceived",
      "type": "event"
    },
    {
      "inputs": [
        {
          "internalType": "bytes4",
          "name": "interfaceId",
          "type": "bytes4"
        }
      ],
      "name": "supportsInterface",
      "outputs": [
        {
          "internalType": "bool",
          "name": "",
          "type": "bool"
        }
      ],
      "stateMutability": "view",
      "type": "function"
    },
    {
      "inputs": [
        {
          "internalType": "address",
          "name": "operator",
          "type": "address"
        },
        {
          "internalType": "address",
          "name": "sender",
          "type": "address"
        },
        {
          "internalType": "uint256",
          "name": "amount",
          "type": "uint256"
        },
        {
          "internalType": "bytes",
          "name": "data",
          "type": "bytes"
        }
      ],
      "name": "onTransferReceived",
      "outputs": [
        {
          "internalType": "bytes4",
          "name": "",
          "type": "bytes4"
        }
      ],
      "stateMutability": "nonpayable",
      "type": "function"
    },
    {
      "inputs": [
        {
          "internalType": "address",
          "name": "sender",
          "type": "address"
        },
        {
          "internalType": "uint256",
          "name": "amount",
          "type": "uint256"
        },
        {
          "internalType": "bytes",
          "name": "data",
          "type": "bytes"
        }
      ],
      "name": "onApprovalReceived",
      "outputs": [
        {
          "internalType": "bytes4",
          "name": "",
          "type": "bytes4"
        }
      ],
      "stateMutability": "nonpayable",
      "type": "function"
    },
    {
      "inputs": [],
      "name": "acceptedToken",
      "outputs": [
        {
          "internalType": "contract IERC1363",
          "name": "",
          "type": "address"
        }
      ],
      "stateMutability": "view",
      "type": "function"
    }
  ],
  "bytecode": "0x60806040523480156200001157600080fd5b5060405162000df638038062000df6833981810160405281019062000037919062000204565b600073ffffffffffffffffffffffffffffffffffffffff168173ffffffffffffffffffffffffffffffffffffffff161415620000aa576040517f08c379a0000000000000000000000000000000000000000000000000000000008152600401620000a19062000285565b60405180910390fd5b8073ffffffffffffffffffffffffffffffffffffffff166301ffc9a77fb0202a11000000000000000000000000000000000000000000000000000000006040518263ffffffff1660e01b815260040162000105919062000268565b60206040518083038186803b1580156200011e57600080fd5b505afa15801562000133573d6000803e3d6000fd5b505050506040513d601f19601f82011682018060405250810190620001599190620001d8565b6200016357600080fd5b806000806101000a81548173ffffffffffffffffffffffffffffffffffffffff021916908373ffffffffffffffffffffffffffffffffffffffff16021790555050620003bb565b600081519050620001bb8162000387565b92915050565b600081519050620001d281620003a1565b92915050565b600060208284031215620001eb57600080fd5b6000620001fb84828501620001aa565b91505092915050565b6000602082840312156200021757600080fd5b60006200022784828501620001c1565b91505092915050565b6200023b81620002d8565b82525050565b600062000250602d83620002a7565b91506200025d8262000338565b604082019050919050565b60006020820190506200027f600083018462000230565b92915050565b60006020820190508181036000830152620002a08162000241565b9050919050565b600082825260208201905092915050565b6000620002c58262000318565b9050919050565b60008115159050919050565b60007fffffffff0000000000000000000000000000000000000000000000000000000082169050919050565b60006200031182620002b8565b9050919050565b600073ffffffffffffffffffffffffffffffffffffffff82169050919050565b7f4552433133363350617961626c653a206163636570746564546f6b656e20697360008201527f207a65726f206164647265737300000000000000000000000000000000000000602082015250565b6200039281620002cc565b81146200039e57600080fd5b50565b620003ac8162000304565b8114620003b857600080fd5b50565b610a2b80620003cb6000396000f3fe608060405234801561001057600080fd5b506004361061004c5760003560e01c806301ffc9a714610051578063451c3d80146100815780637b04a2d01461009f57806388a7ca5c146100cf575b600080fd5b61006b60048036038101906100669190610631565b6100ff565b60405161007891906106f2565b60405180910390f35b6100896101e1565b6040516100969190610728565b60405180910390f35b6100b960048036038101906100b491906105ca565b61020a565b6040516100c6919061070d565b60405180910390f35b6100e960048036038101906100e4919061054f565b61030e565b6040516100f6919061070d565b60405180910390f35b60007f88a7ca5c000000000000000000000000000000000000000000000000000000007bffffffffffffffffffffffffffffffffffffffffffffffffffffffff1916827bffffffffffffffffffffffffffffffffffffffffffffffffffffffff191614806101ca57507f7b04a2d0000000000000000000000000000000000000000000000000000000007bffffffffffffffffffffffffffffffffffffffffffffffffffffffff1916827bffffffffffffffffffffffffffffffffffffffffffffffffffffffff1916145b806101da57506101d98261042b565b5b9050919050565b60008060009054906101000a900473ffffffffffffffffffffffffffffffffffffffff16905090565b60008060009054906101000a900473ffffffffffffffffffffffffffffffffffffffff1673ffffffffffffffffffffffffffffffffffffffff1661024c610495565b73ffffffffffffffffffffffffffffffffffffffff16146102a2576040517f08c379a000000000000000000000000000000000000000000000000000000000815260040161029990610743565b60405180910390fd5b8373ffffffffffffffffffffffffffffffffffffffff167ffc47604465ac19edea172256bab2469184c3a6770701541635cf84241c2f24b484846040516102ea929190610763565b60405180910390a26102fd84848461049d565b637b04a2d060e01b90509392505050565b60008060009054906101000a900473ffffffffffffffffffffffffffffffffffffffff1673ffffffffffffffffffffffffffffffffffffffff16610350610495565b73ffffffffffffffffffffffffffffffffffffffff16146103a6576040517f08c379a000000000000000000000000000000000000000000000000000000000815260040161039d90610743565b60405180910390fd5b8373ffffffffffffffffffffffffffffffffffffffff168573ffffffffffffffffffffffffffffffffffffffff167f01db5e58326b109682dc160b2e51aa7bf7e8d8ccf74bc242a3c50217937890558585604051610405929190610763565b60405180910390a3610419858585856104a2565b6388a7ca5c60e01b9050949350505050565b60007f01ffc9a7000000000000000000000000000000000000000000000000000000007bffffffffffffffffffffffffffffffffffffffffffffffffffffffff1916827bffffffffffffffffffffffffffffffffffffffffffffffffffffffff1916149050919050565b600033905090565b505050565b50505050565b60006104bb6104b6846107b8565b610793565b9050828152602081018484840111156104d357600080fd5b6104de8482856108ae565b509392505050565b6000813590506104f5816109b0565b92915050565b60008135905061050a816109c7565b92915050565b600082601f83011261052157600080fd5b81356105318482602086016104a8565b91505092915050565b600081359050610549816109de565b92915050565b6000806000806080858703121561056557600080fd5b6000610573878288016104e6565b9450506020610584878288016104e6565b93505060406105958782880161053a565b925050606085013567ffffffffffffffff8111156105b257600080fd5b6105be87828801610510565b91505092959194509250565b6000806000606084860312156105df57600080fd5b60006105ed868287016104e6565b93505060206105fe8682870161053a565b925050604084013567ffffffffffffffff81111561061b57600080fd5b61062786828701610510565b9150509250925092565b60006020828403121561064357600080fd5b6000610651848285016104fb565b91505092915050565b61066381610828565b82525050565b61067281610834565b82525050565b6000610683826107e9565b61068d81856107f4565b935061069d8185602086016108bd565b6106a681610950565b840191505092915050565b6106ba8161088a565b82525050565b60006106cd603383610805565b91506106d882610961565b604082019050919050565b6106ec81610880565b82525050565b6000602082019050610707600083018461065a565b92915050565b60006020820190506107226000830184610669565b92915050565b600060208201905061073d60008301846106b1565b92915050565b6000602082019050818103600083015261075c816106c0565b9050919050565b600060408201905061077860008301856106e3565b818103602083015261078a8184610678565b90509392505050565b600061079d6107ae565b90506107a982826108f0565b919050565b6000604051905090565b600067ffffffffffffffff8211156107d3576107d2610921565b5b6107dc82610950565b9050602081019050919050565b600081519050919050565b600082825260208201905092915050565b600082825260208201905092915050565b600061082182610860565b9050919050565b60008115159050919050565b60007fffffffff0000000000000000000000000000000000000000000000000000000082169050919050565b600073ffffffffffffffffffffffffffffffffffffffff82169050919050565b6000819050919050565b60006108958261089c565b9050919050565b60006108a782610860565b9050919050565b82818337600083830152505050565b60005b838110156108db5780820151818401526020810190506108c0565b838111156108ea576000848401525b50505050565b6108f982610950565b810181811067ffffffffffffffff8211171561091857610917610921565b5b80604052505050565b7f4e487b7100000000000000000000000000000000000000000000000000000000600052604160045260246000fd5b6000601f19601f8301169050919050565b7f4552433133363350617961626c653a206163636570746564546f6b656e20697360008201527f206e6f74206d6573736167652073656e64657200000000000000000000000000602082015250565b6109b981610816565b81146109c457600080fd5b50565b6109d081610834565b81146109db57600080fd5b50565b6109e781610880565b81146109f257600080fd5b5056fea2646970667358221220b68fcd508dbcd5e38d2922940c4e9ce14254d21ed3dfa75dcf11fc89e3d975d364736f6c63430008040033",
  "immutableReferences": {},
  "source": "// SPDX-License-Identifier: MIT\n\npragma solidity ^0.8.0;\n\nimport \"@openzeppelin/contracts/utils/introspection/ERC165.sol\";\nimport \"@openzeppelin/contracts/utils/introspection/ERC165Checker.sol\";\nimport \"@openzeppelin/contracts/utils/Context.sol\";\n\nimport \"../token/ERC1363/IERC1363.sol\";\nimport \"../token/ERC1363/IERC1363Receiver.sol\";\nimport \"../token/ERC1363/IERC1363Spender.sol\";\n\n/**\n * @title ERC1363Payable\n * @author Vittorio Minacori (https://github.com/vittominacori)\n * @dev Implementation proposal of a contract that wants to accept ERC1363 payments\n */\ncontract ERC1363Payable is IERC1363Receiver, IERC1363Spender, ERC165, Context {\n    using ERC165Checker for address;\n\n    /**\n     * @dev Emitted when `amount` tokens are moved from one account (`sender`) to\n     * this by operator (`operator`) using {transferAndCall} or {transferFromAndCall}.\n     */\n    event TokensReceived(address indexed operator, address indexed sender, uint256 amount, bytes data);\n\n    /**\n     * @dev Emitted when the allowance of this for a `sender` is set by\n     * a call to {approveAndCall}. `amount` is the new allowance.\n     */\n    event TokensApproved(address indexed sender, uint256 amount, bytes data);\n\n    // The ERC1363 token accepted\n    IERC1363 private _acceptedToken;\n\n    /**\n     * @param acceptedToken_ Address of the token being accepted\n     */\n    constructor(IERC1363 acceptedToken_) {\n        require(address(acceptedToken_) != address(0), \"ERC1363Payable: acceptedToken is zero address\");\n        require(acceptedToken_.supportsInterface(type(IERC1363).interfaceId));\n\n        _acceptedToken = acceptedToken_;\n    }\n\n    /**\n     * @dev See {IERC165-supportsInterface}.\n     */\n    function supportsInterface(bytes4 interfaceId) public view virtual override(ERC165) returns (bool) {\n        return\n            interfaceId == type(IERC1363Receiver).interfaceId ||\n            interfaceId == type(IERC1363Spender).interfaceId ||\n            super.supportsInterface(interfaceId);\n    }\n\n    /*\n     * @dev Note: remember that the token contract address is always the message sender.\n     * @param operator The address which called `transferAndCall` or `transferFromAndCall` function\n     * @param sender The address which are token transferred from\n     * @param amount The amount of tokens transferred\n     * @param data Additional data with no specified format\n     */\n    function onTransferReceived(\n        address operator,\n        address sender,\n        uint256 amount,\n        bytes memory data\n    ) public override returns (bytes4) {\n        require(_msgSender() == address(_acceptedToken), \"ERC1363Payable: acceptedToken is not message sender\");\n\n        emit TokensReceived(operator, sender, amount, data);\n\n        _transferReceived(operator, sender, amount, data);\n\n        return IERC1363Receiver(this).onTransferReceived.selector;\n    }\n\n    /*\n     * @dev Note: remember that the token contract address is always the message sender.\n     * @param sender The address which called `approveAndCall` function\n     * @param amount The amount of tokens to be spent\n     * @param data Additional data with no specified format\n     */\n    function onApprovalReceived(\n        address sender,\n        uint256 amount,\n        bytes memory data\n    ) public override returns (bytes4) {\n        require(_msgSender() == address(_acceptedToken), \"ERC1363Payable: acceptedToken is not message sender\");\n\n        emit TokensApproved(sender, amount, data);\n\n        _approvalReceived(sender, amount, data);\n\n        return IERC1363Spender(this).onApprovalReceived.selector;\n    }\n\n    /**\n     * @dev The ERC1363 token accepted\n     */\n    function acceptedToken() public view returns (IERC1363) {\n        return _acceptedToken;\n    }\n\n    /**\n     * @dev Called after validating a `onTransferReceived`. Override this method to\n     * make your stuffs within your contract.\n     * @param operator The address which called `transferAndCall` or `transferFromAndCall` function\n     * @param sender The address which are token transferred from\n     * @param amount The amount of tokens transferred\n     * @param data Additional data with no specified format\n     */\n    function _transferReceived(\n        address operator,\n        address sender,\n        uint256 amount,\n        bytes memory data\n    ) internal virtual {\n        // optional override\n    }\n\n    /**\n     * @dev Called after validating a `onApprovalReceived`. Override this method to\n     * make your stuffs within your contract.\n     * @param sender The address which called `approveAndCall` function\n     * @param amount The amount of tokens to be spent\n     * @param data Additional data with no specified format\n     */\n    function _approvalReceived(\n        address sender,\n        uint256 amount,\n        bytes memory data\n    ) internal virtual {\n        // optional override\n    }\n}\n",
  "sourcePath": "erc-payable-token/contracts/payment/ERC1363Payable.sol",
  "compiler": {
    "name": "solc",
    "version": "0.8.4+commit.c7e474f2.Emscripten.clang"
  },
  "schemaVersion": "3.3.3",
  "updatedAt": "2022-01-13T02:50:51.325Z",
  "devdoc": {
    "author": "Vittorio Minacori (https://github.com/vittominacori)",
    "details": "Implementation proposal of a contract that wants to accept ERC1363 payments",
    "events": {
      "TokensApproved(address,uint256,bytes)": {
        "details": "Emitted when the allowance of this for a `sender` is set by a call to {approveAndCall}. `amount` is the new allowance."
      },
      "TokensReceived(address,address,uint256,bytes)": {
        "details": "Emitted when `amount` tokens are moved from one account (`sender`) to this by operator (`operator`) using {transferAndCall} or {transferFromAndCall}."
      }
    },
    "kind": "dev",
    "methods": {
      "acceptedToken()": {
        "details": "The ERC1363 token accepted"
      },
      "constructor": {
        "params": {
          "acceptedToken_": "Address of the token being accepted"
        }
      },
      "onApprovalReceived(address,uint256,bytes)": {
        "details": "Any ERC1363 smart contract calls this function on the recipient after an `approve`. This function MAY throw to revert and reject the approval. Return of other than the magic value MUST result in the transaction being reverted. Note: the token contract address is always the message sender.",
        "params": {
          "amount": "uint256 The amount of tokens to be spent",
          "data": "bytes Additional data with no specified format",
          "sender": "address The address which called `approveAndCall` function"
        },
        "returns": {
          "_0": "`bytes4(keccak256(\"onApprovalReceived(address,uint256,bytes)\"))` unless throwing"
        }
      },
      "onTransferReceived(address,address,uint256,bytes)": {
        "details": "Any ERC1363 smart contract calls this function on the recipient after a `transfer` or a `transferFrom`. This function MAY throw to revert and reject the transfer. Return of other than the magic value MUST result in the transaction being reverted. Note: the token contract address is always the message sender.",
        "params": {
          "amount": "uint256 The amount of tokens transferred",
          "data": "bytes Additional data with no specified format",
          "operator": "address The address which called `transferAndCall` or `transferFromAndCall` function",
          "sender": "address The address which are token transferred from"
        },
        "returns": {
          "_0": "`bytes4(keccak256(\"onTransferReceived(address,address,uint256,bytes)\"))` unless throwing"
        }
      },
      "supportsInterface(bytes4)": {
        "details": "See {IERC165-supportsInterface}."
      }
    },
    "title": "ERC1363Payable",
    "version": 1
  },
  "userdoc": {
    "kind": "user",
    "methods": {
      "onApprovalReceived(address,uint256,bytes)": {
        "notice": "Handle the approval of ERC1363 tokens"
      },
      "onTransferReceived(address,address,uint256,bytes)": {
        "notice": "Handle the receipt of ERC1363 tokens"
      }
    },
    "version": 1
  }
}