{
  "contractName": "ERC721ContractWideRoyalties",
  "abi": [
    {
      "inputs": [
        {
          "internalType": "string",
          "name": "name_",
          "type": "string"
        },
        {
          "internalType": "string",
          "name": "symbol_",
          "type": "string"
        }
      ],
      "stateMutability": "nonpayable",
      "type": "constructor"
    },
    {
      "anonymous": false,
      "inputs": [
        {
          "indexed": true,
          "internalType": "address",
          "name": "owner",
          "type": "address"
        },
        {
          "indexed": true,
          "internalType": "address",
          "name": "approved",
          "type": "address"
        },
        {
          "indexed": true,
          "internalType": "uint256",
          "name": "tokenId",
          "type": "uint256"
        }
      ],
      "name": "Approval",
      "type": "event"
    },
    {
      "anonymous": false,
      "inputs": [
        {
          "indexed": true,
          "internalType": "address",
          "name": "owner",
          "type": "address"
        },
        {
          "indexed": true,
          "internalType": "address",
          "name": "operator",
          "type": "address"
        },
        {
          "indexed": false,
          "internalType": "bool",
          "name": "approved",
          "type": "bool"
        }
      ],
      "name": "ApprovalForAll",
      "type": "event"
    },
    {
      "anonymous": false,
      "inputs": [
        {
          "indexed": true,
          "internalType": "address",
          "name": "previousOwner",
          "type": "address"
        },
        {
          "indexed": true,
          "internalType": "address",
          "name": "newOwner",
          "type": "address"
        }
      ],
      "name": "OwnershipTransferred",
      "type": "event"
    },
    {
      "anonymous": false,
      "inputs": [
        {
          "indexed": true,
          "internalType": "address",
          "name": "from",
          "type": "address"
        },
        {
          "indexed": true,
          "internalType": "address",
          "name": "to",
          "type": "address"
        },
        {
          "indexed": true,
          "internalType": "uint256",
          "name": "tokenId",
          "type": "uint256"
        }
      ],
      "name": "Transfer",
      "type": "event"
    },
    {
      "inputs": [
        {
          "internalType": "address",
          "name": "to",
          "type": "address"
        },
        {
          "internalType": "uint256",
          "name": "tokenId",
          "type": "uint256"
        }
      ],
      "name": "approve",
      "outputs": [],
      "stateMutability": "nonpayable",
      "type": "function"
    },
    {
      "inputs": [
        {
          "internalType": "address",
          "name": "owner",
          "type": "address"
        }
      ],
      "name": "balanceOf",
      "outputs": [
        {
          "internalType": "uint256",
          "name": "",
          "type": "uint256"
        }
      ],
      "stateMutability": "view",
      "type": "function"
    },
    {
      "inputs": [
        {
          "internalType": "uint256",
          "name": "tokenId",
          "type": "uint256"
        }
      ],
      "name": "getApproved",
      "outputs": [
        {
          "internalType": "address",
          "name": "",
          "type": "address"
        }
      ],
      "stateMutability": "view",
      "type": "function"
    },
    {
      "inputs": [
        {
          "internalType": "address",
          "name": "owner",
          "type": "address"
        },
        {
          "internalType": "address",
          "name": "operator",
          "type": "address"
        }
      ],
      "name": "isApprovedForAll",
      "outputs": [
        {
          "internalType": "bool",
          "name": "",
          "type": "bool"
        }
      ],
      "stateMutability": "view",
      "type": "function"
    },
    {
      "inputs": [],
      "name": "name",
      "outputs": [
        {
          "internalType": "string",
          "name": "",
          "type": "string"
        }
      ],
      "stateMutability": "view",
      "type": "function"
    },
    {
      "inputs": [],
      "name": "owner",
      "outputs": [
        {
          "internalType": "address",
          "name": "",
          "type": "address"
        }
      ],
      "stateMutability": "view",
      "type": "function"
    },
    {
      "inputs": [
        {
          "internalType": "uint256",
          "name": "tokenId",
          "type": "uint256"
        }
      ],
      "name": "ownerOf",
      "outputs": [
        {
          "internalType": "address",
          "name": "",
          "type": "address"
        }
      ],
      "stateMutability": "view",
      "type": "function"
    },
    {
      "inputs": [],
      "name": "renounceOwnership",
      "outputs": [],
      "stateMutability": "nonpayable",
      "type": "function"
    },
    {
      "inputs": [
        {
          "internalType": "uint256",
          "name": "_tokenId",
          "type": "uint256"
        },
        {
          "internalType": "uint256",
          "name": "_salePrice",
          "type": "uint256"
        }
      ],
      "name": "royaltyInfo",
      "outputs": [
        {
          "internalType": "address",
          "name": "",
          "type": "address"
        },
        {
          "internalType": "uint256",
          "name": "",
          "type": "uint256"
        }
      ],
      "stateMutability": "view",
      "type": "function"
    },
    {
      "inputs": [
        {
          "internalType": "address",
          "name": "from",
          "type": "address"
        },
        {
          "internalType": "address",
          "name": "to",
          "type": "address"
        },
        {
          "internalType": "uint256",
          "name": "tokenId",
          "type": "uint256"
        }
      ],
      "name": "safeTransferFrom",
      "outputs": [],
      "stateMutability": "nonpayable",
      "type": "function"
    },
    {
      "inputs": [
        {
          "internalType": "address",
          "name": "from",
          "type": "address"
        },
        {
          "internalType": "address",
          "name": "to",
          "type": "address"
        },
        {
          "internalType": "uint256",
          "name": "tokenId",
          "type": "uint256"
        },
        {
          "internalType": "bytes",
          "name": "_data",
          "type": "bytes"
        }
      ],
      "name": "safeTransferFrom",
      "outputs": [],
      "stateMutability": "nonpayable",
      "type": "function"
    },
    {
      "inputs": [
        {
          "internalType": "address",
          "name": "operator",
          "type": "address"
        },
        {
          "internalType": "bool",
          "name": "approved",
          "type": "bool"
        }
      ],
      "name": "setApprovalForAll",
      "outputs": [],
      "stateMutability": "nonpayable",
      "type": "function"
    },
    {
      "inputs": [],
      "name": "symbol",
      "outputs": [
        {
          "internalType": "string",
          "name": "",
          "type": "string"
        }
      ],
      "stateMutability": "view",
      "type": "function"
    },
    {
      "inputs": [
        {
          "internalType": "uint256",
          "name": "tokenId",
          "type": "uint256"
        }
      ],
      "name": "tokenURI",
      "outputs": [
        {
          "internalType": "string",
          "name": "",
          "type": "string"
        }
      ],
      "stateMutability": "view",
      "type": "function"
    },
    {
      "inputs": [
        {
          "internalType": "address",
          "name": "from",
          "type": "address"
        },
        {
          "internalType": "address",
          "name": "to",
          "type": "address"
        },
        {
          "internalType": "uint256",
          "name": "tokenId",
          "type": "uint256"
        }
      ],
      "name": "transferFrom",
      "outputs": [],
      "stateMutability": "nonpayable",
      "type": "function"
    },
    {
      "inputs": [
        {
          "internalType": "address",
          "name": "newOwner",
          "type": "address"
        }
      ],
      "name": "transferOwnership",
      "outputs": [],
      "stateMutability": "nonpayable",
      "type": "function"
    },
    {
      "inputs": [
        {
          "internalType": "bytes4",
          "name": "interfaceId",
          "type": "bytes4"
        }
      ],
      "name": "supportsInterface",
      "outputs": [
        {
          "internalType": "bool",
          "name": "",
          "type": "bool"
        }
      ],
      "stateMutability": "view",
      "type": "function"
    },
    {
      "inputs": [
        {
          "internalType": "address",
          "name": "recipient",
          "type": "address"
        },
        {
          "internalType": "uint256",
          "name": "value",
          "type": "uint256"
        }
      ],
      "name": "setRoyalties",
      "outputs": [],
      "stateMutability": "nonpayable",
      "type": "function"
    },
    {
      "inputs": [
        {
          "internalType": "address",
          "name": "receiver",
          "type": "address"
        },
        {
          "internalType": "uint96",
          "name": "feeNumerator",
          "type": "uint96"
        }
      ],
      "name": "setDefaultRoyalty",
      "outputs": [],
      "stateMutability": "nonpayable",
      "type": "function"
    },
    {
      "inputs": [
        {
          "internalType": "uint256",
          "name": "tokenId",
          "type": "uint256"
        },
        {
          "internalType": "address",
          "name": "receiver",
          "type": "address"
        },
        {
          "internalType": "uint96",
          "name": "feeNumerator",
          "type": "uint96"
        }
      ],
      "name": "setTokenRoyalty",
      "outputs": [],
      "stateMutability": "nonpayable",
      "type": "function"
    },
    {
      "inputs": [],
      "name": "deleteDefaultRoyalty",
      "outputs": [],
      "stateMutability": "nonpayable",
      "type": "function"
    },
    {
      "inputs": [
        {
          "internalType": "uint256",
          "name": "tokenId",
          "type": "uint256"
        }
      ],
      "name": "resetTokenRoyalty",
      "outputs": [],
      "stateMutability": "nonpayable",
      "type": "function"
    },
    {
      "inputs": [
        {
          "internalType": "address",
          "name": "to",
          "type": "address"
        }
      ],
      "name": "mint",
      "outputs": [
        {
          "internalType": "uint256",
          "name": "_tokenId",
          "type": "uint256"
        }
      ],
      "stateMutability": "nonpayable",
      "type": "function"
    },
    {
      "inputs": [
        {
          "internalType": "address[]",
          "name": "recipients",
          "type": "address[]"
        }
      ],
      "name": "mintBatch",
      "outputs": [],
      "stateMutability": "nonpayable",
      "type": "function"
    }
  ],
  "bytecode": "0x60806040523480156200001157600080fd5b5060405162003d6638038062003d66833981810160405281019062000037919062000285565b818181600090805190602001906200005192919062000163565b5080600190805190602001906200006a92919062000163565b5050506200008d620000816200009560201b60201c565b6200009d60201b60201c565b505062000468565b600033905090565b6000600960009054906101000a900473ffffffffffffffffffffffffffffffffffffffff16905081600960006101000a81548173ffffffffffffffffffffffffffffffffffffffff021916908373ffffffffffffffffffffffffffffffffffffffff1602179055508173ffffffffffffffffffffffffffffffffffffffff168173ffffffffffffffffffffffffffffffffffffffff167f8be0079c531659141344cd1fd0a4f28419497f9722a3daafe3b4186f6b6457e060405160405180910390a35050565b82805462000171906200038d565b90600052602060002090601f016020900481019282620001955760008555620001e1565b82601f10620001b057805160ff1916838001178555620001e1565b82800160010185558215620001e1579182015b82811115620001e0578251825591602001919060010190620001c3565b5b509050620001f09190620001f4565b5090565b5b808211156200020f576000816000905550600101620001f5565b5090565b60006200022a620002248462000321565b620002f8565b9050828152602081018484840111156200024357600080fd5b6200025084828562000357565b509392505050565b600082601f8301126200026a57600080fd5b81516200027c84826020860162000213565b91505092915050565b600080604083850312156200029957600080fd5b600083015167ffffffffffffffff811115620002b457600080fd5b620002c28582860162000258565b925050602083015167ffffffffffffffff811115620002e057600080fd5b620002ee8582860162000258565b9150509250929050565b60006200030462000317565b9050620003128282620003c3565b919050565b6000604051905090565b600067ffffffffffffffff8211156200033f576200033e62000428565b5b6200034a8262000457565b9050602081019050919050565b60005b83811015620003775780820151818401526020810190506200035a565b8381111562000387576000848401525b50505050565b60006002820490506001821680620003a657607f821691505b60208210811415620003bd57620003bc620003f9565b5b50919050565b620003ce8262000457565b810181811067ffffffffffffffff82111715620003f057620003ef62000428565b5b80604052505050565b7f4e487b7100000000000000000000000000000000000000000000000000000000600052602260045260246000fd5b7f4e487b7100000000000000000000000000000000000000000000000000000000600052604160045260246000fd5b6000601f19601f8301169050919050565b6138ee80620004786000396000f3fe608060405234801561001057600080fd5b50600436106101585760003560e01c8063715018a6116100c3578063a22cb4651161007c578063a22cb465146103c2578063aa1b103f146103de578063b88d4fde146103e8578063c87b56dd14610404578063e985e9c514610434578063f2fde38b1461046457610158565b8063715018a6146103285780638a616bc0146103325780638c7ea24b1461034e5780638da5cb5b1461036a578063927f59ba1461038857806395d89b41146103a457610158565b80632a55205a116101155780632a55205a1461022f57806342842e0e146102605780635944c7531461027c5780636352211e146102985780636a627842146102c857806370a08231146102f857610158565b806301ffc9a71461015d57806304634d8d1461018d57806306fdde03146101a9578063081812fc146101c7578063095ea7b3146101f757806323b872dd14610213575b600080fd5b610177600480360381019061017291906126b3565b610480565b6040516101849190612bf9565b60405180910390f35b6101a760048036038101906101a29190612636565b610492565b005b6101b16104a0565b6040516101be9190612c14565b60405180910390f35b6101e160048036038101906101dc9190612705565b610532565b6040516101ee9190612b69565b60405180910390f35b610211600480360381019061020c91906125fa565b6105b7565b005b61022d600480360381019061022891906124f4565b6106cf565b005b6102496004803603810190610244919061277d565b61072f565b604051610257929190612bd0565b60405180910390f35b61027a600480360381019061027591906124f4565b61091a565b005b6102966004803603810190610291919061272e565b61093a565b005b6102b260048036038101906102ad9190612705565b61094a565b6040516102bf9190612b69565b60405180910390f35b6102e260048036038101906102dd919061248f565b6109fc565b6040516102ef9190612eb6565b60405180910390f35b610312600480360381019061030d919061248f565b610a38565b60405161031f9190612eb6565b60405180910390f35b610330610af0565b005b61034c60048036038101906103479190612705565b610b78565b005b610368600480360381019061036391906125fa565b610b84565b005b610372610b92565b60405161037f9190612b69565b60405180910390f35b6103a2600480360381019061039d9190612672565b610bbc565b005b6103ac610c52565b6040516103b99190612c14565b60405180910390f35b6103dc60048036038101906103d791906125be565b610ce4565b005b6103e6610cfa565b005b61040260048036038101906103fd9190612543565b610d04565b005b61041e60048036038101906104199190612705565b610d66565b60405161042b9190612c14565b60405180910390f35b61044e600480360381019061044991906124b8565b610e0d565b60405161045b9190612bf9565b60405180910390f35b61047e6004803603810190610479919061248f565b610ea1565b005b600061048b82610f99565b9050919050565b61049c8282611013565b5050565b6060600080546104af90613179565b80601f01602080910402602001604051908101604052809291908181526020018280546104db90613179565b80156105285780601f106104fd57610100808354040283529160200191610528565b820191906000526020600020905b81548152906001019060200180831161050b57829003601f168201915b5050505050905090565b600061053d826111a9565b61057c576040517f08c379a000000000000000000000000000000000000000000000000000000000815260040161057390612d96565b60405180910390fd5b6004600083815260200190815260200160002060009054906101000a900473ffffffffffffffffffffffffffffffffffffffff169050919050565b60006105c28261094a565b90508073ffffffffffffffffffffffffffffffffffffffff168373ffffffffffffffffffffffffffffffffffffffff161415610633576040517f08c379a000000000000000000000000000000000000000000000000000000000815260040161062a90612e16565b60405180910390fd5b8073ffffffffffffffffffffffffffffffffffffffff16610652611215565b73ffffffffffffffffffffffffffffffffffffffff16148061068157506106808161067b611215565b610e0d565b5b6106c0576040517f08c379a00000000000000000000000000000000000000000000000000000000081526004016106b790612d16565b60405180910390fd5b6106ca838361121d565b505050565b6106e06106da611215565b826112d6565b61071f576040517f08c379a000000000000000000000000000000000000000000000000000000000815260040161071690612e36565b60405180910390fd5b61072a8383836113b4565b505050565b6000806000600760008681526020019081526020016000206040518060400160405290816000820160009054906101000a900473ffffffffffffffffffffffffffffffffffffffff1673ffffffffffffffffffffffffffffffffffffffff1673ffffffffffffffffffffffffffffffffffffffff1681526020016000820160149054906101000a90046bffffffffffffffffffffffff166bffffffffffffffffffffffff166bffffffffffffffffffffffff16815250509050600073ffffffffffffffffffffffffffffffffffffffff16816000015173ffffffffffffffffffffffffffffffffffffffff1614156108c55760066040518060400160405290816000820160009054906101000a900473ffffffffffffffffffffffffffffffffffffffff1673ffffffffffffffffffffffffffffffffffffffff1673ffffffffffffffffffffffffffffffffffffffff1681526020016000820160149054906101000a90046bffffffffffffffffffffffff166bffffffffffffffffffffffff166bffffffffffffffffffffffff168152505090505b60006108cf611610565b6bffffffffffffffffffffffff1682602001516bffffffffffffffffffffffff16866108fb919061301d565b6109059190612fec565b90508160000151819350935050509250929050565b61093583838360405180602001604052806000815250610d04565b505050565b61094583838361161a565b505050565b6000806002600084815260200190815260200160002060009054906101000a900473ffffffffffffffffffffffffffffffffffffffff169050600073ffffffffffffffffffffffffffffffffffffffff168173ffffffffffffffffffffffffffffffffffffffff1614156109f3576040517f08c379a00000000000000000000000000000000000000000000000000000000081526004016109ea90612d56565b60405180910390fd5b80915050919050565b600080610a09600a6117c2565b9050610a258382604051806020016040528060008152506117d0565b610a2f600a61182b565b80915050919050565b60008073ffffffffffffffffffffffffffffffffffffffff168273ffffffffffffffffffffffffffffffffffffffff161415610aa9576040517f08c379a0000000000000000000000000000000000000000000000000000000008152600401610aa090612d36565b60405180910390fd5b600360008373ffffffffffffffffffffffffffffffffffffffff1673ffffffffffffffffffffffffffffffffffffffff168152602001908152602001600020549050919050565b610af8611215565b73ffffffffffffffffffffffffffffffffffffffff16610b16610b92565b73ffffffffffffffffffffffffffffffffffffffff1614610b6c576040517f08c379a0000000000000000000000000000000000000000000000000000000008152600401610b6390612db6565b60405180910390fd5b610b766000611841565b565b610b8181611907565b50565b610b8e8282611966565b5050565b6000600960009054906101000a900473ffffffffffffffffffffffffffffffffffffffff16905090565b6000610bc8600a6117c2565b905060005b8251811015610c4d57610c30838281518110610c12577f4e487b7100000000000000000000000000000000000000000000000000000000600052603260045260246000fd5b602002602001015183604051806020016040528060008152506117d0565b610c3a600a61182b565b8080610c45906131dc565b915050610bcd565b505050565b606060018054610c6190613179565b80601f0160208091040260200160405190810160405280929190818152602001828054610c8d90613179565b8015610cda5780601f10610caf57610100808354040283529160200191610cda565b820191906000526020600020905b815481529060010190602001808311610cbd57829003601f168201915b5050505050905090565b610cf6610cef611215565b8383611a70565b5050565b610d02611bdd565b565b610d15610d0f611215565b836112d6565b610d54576040517f08c379a0000000000000000000000000000000000000000000000000000000008152600401610d4b90612e36565b60405180910390fd5b610d6084848484611c2a565b50505050565b6060610d71826111a9565b610db0576040517f08c379a0000000000000000000000000000000000000000000000000000000008152600401610da790612df6565b60405180910390fd5b6000610dba611c86565b90506000815111610dda5760405180602001604052806000815250610e05565b80610de484611c9d565b604051602001610df5929190612b45565b6040516020818303038152906040525b915050919050565b6000600560008473ffffffffffffffffffffffffffffffffffffffff1673ffffffffffffffffffffffffffffffffffffffff16815260200190815260200160002060008373ffffffffffffffffffffffffffffffffffffffff1673ffffffffffffffffffffffffffffffffffffffff16815260200190815260200160002060009054906101000a900460ff16905092915050565b610ea9611215565b73ffffffffffffffffffffffffffffffffffffffff16610ec7610b92565b73ffffffffffffffffffffffffffffffffffffffff1614610f1d576040517f08c379a0000000000000000000000000000000000000000000000000000000008152600401610f1490612db6565b60405180910390fd5b600073ffffffffffffffffffffffffffffffffffffffff168173ffffffffffffffffffffffffffffffffffffffff161415610f8d576040517f08c379a0000000000000000000000000000000000000000000000000000000008152600401610f8490612c76565b60405180910390fd5b610f9681611841565b50565b60007f2a55205a000000000000000000000000000000000000000000000000000000007bffffffffffffffffffffffffffffffffffffffffffffffffffffffff1916827bffffffffffffffffffffffffffffffffffffffffffffffffffffffff1916148061100c575061100b82611e4a565b5b9050919050565b61101b611610565b6bffffffffffffffffffffffff16816bffffffffffffffffffffffff161115611079576040517f08c379a000000000000000000000000000000000000000000000000000000000815260040161107090612e76565b60405180910390fd5b600073ffffffffffffffffffffffffffffffffffffffff168273ffffffffffffffffffffffffffffffffffffffff1614156110e9576040517f08c379a00000000000000000000000000000000000000000000000000000000081526004016110e090612e96565b60405180910390fd5b60405180604001604052808373ffffffffffffffffffffffffffffffffffffffff168152602001826bffffffffffffffffffffffff16815250600660008201518160000160006101000a81548173ffffffffffffffffffffffffffffffffffffffff021916908373ffffffffffffffffffffffffffffffffffffffff16021790555060208201518160000160146101000a8154816bffffffffffffffffffffffff02191690836bffffffffffffffffffffffff1602179055509050505050565b60008073ffffffffffffffffffffffffffffffffffffffff166002600084815260200190815260200160002060009054906101000a900473ffffffffffffffffffffffffffffffffffffffff1673ffffffffffffffffffffffffffffffffffffffff1614159050919050565b600033905090565b816004600083815260200190815260200160002060006101000a81548173ffffffffffffffffffffffffffffffffffffffff021916908373ffffffffffffffffffffffffffffffffffffffff160217905550808273ffffffffffffffffffffffffffffffffffffffff166112908361094a565b73ffffffffffffffffffffffffffffffffffffffff167f8c5be1e5ebec7d5bd14f71427d1e84f3dd0314c0f7b2291e5b200ac8c7c3b92560405160405180910390a45050565b60006112e1826111a9565b611320576040517f08c379a000000000000000000000000000000000000000000000000000000000815260040161131790612cf6565b60405180910390fd5b600061132b8361094a565b90508073ffffffffffffffffffffffffffffffffffffffff168473ffffffffffffffffffffffffffffffffffffffff16148061139a57508373ffffffffffffffffffffffffffffffffffffffff1661138284610532565b73ffffffffffffffffffffffffffffffffffffffff16145b806113ab57506113aa8185610e0d565b5b91505092915050565b8273ffffffffffffffffffffffffffffffffffffffff166113d48261094a565b73ffffffffffffffffffffffffffffffffffffffff161461142a576040517f08c379a000000000000000000000000000000000000000000000000000000000815260040161142190612dd6565b60405180910390fd5b600073ffffffffffffffffffffffffffffffffffffffff168273ffffffffffffffffffffffffffffffffffffffff16141561149a576040517f08c379a000000000000000000000000000000000000000000000000000000000815260040161149190612cb6565b60405180910390fd5b6114a5838383611f2c565b6114b060008261121d565b6001600360008573ffffffffffffffffffffffffffffffffffffffff1673ffffffffffffffffffffffffffffffffffffffff16815260200190815260200160002060008282546115009190613077565b925050819055506001600360008473ffffffffffffffffffffffffffffffffffffffff1673ffffffffffffffffffffffffffffffffffffffff16815260200190815260200160002060008282546115579190612f96565b92505081905550816002600083815260200190815260200160002060006101000a81548173ffffffffffffffffffffffffffffffffffffffff021916908373ffffffffffffffffffffffffffffffffffffffff160217905550808273ffffffffffffffffffffffffffffffffffffffff168473ffffffffffffffffffffffffffffffffffffffff167fddf252ad1be2c89b69c2b068fc378daa952ba7f163c4a11628f55a4df523b3ef60405160405180910390a4505050565b6000612710905090565b611622611610565b6bffffffffffffffffffffffff16816bffffffffffffffffffffffff161115611680576040517f08c379a000000000000000000000000000000000000000000000000000000000815260040161167790612e76565b60405180910390fd5b600073ffffffffffffffffffffffffffffffffffffffff168273ffffffffffffffffffffffffffffffffffffffff1614156116f0576040517f08c379a00000000000000000000000000000000000000000000000000000000081526004016116e790612e56565b60405180910390fd5b60405180604001604052808373ffffffffffffffffffffffffffffffffffffffff168152602001826bffffffffffffffffffffffff168152506007600085815260200190815260200160002060008201518160000160006101000a81548173ffffffffffffffffffffffffffffffffffffffff021916908373ffffffffffffffffffffffffffffffffffffffff16021790555060208201518160000160146101000a8154816bffffffffffffffffffffffff02191690836bffffffffffffffffffffffff160217905550905050505050565b600081600001549050919050565b6117da8383611f31565b6117e760008484846120ff565b611826576040517f08c379a000000000000000000000000000000000000000000000000000000000815260040161181d90612c56565b60405180910390fd5b505050565b6001816000016000828254019250508190555050565b6000600960009054906101000a900473ffffffffffffffffffffffffffffffffffffffff16905081600960006101000a81548173ffffffffffffffffffffffffffffffffffffffff021916908373ffffffffffffffffffffffffffffffffffffffff1602179055508173ffffffffffffffffffffffffffffffffffffffff168173ffffffffffffffffffffffffffffffffffffffff167f8be0079c531659141344cd1fd0a4f28419497f9722a3daafe3b4186f6b6457e060405160405180910390a35050565b60076000828152602001908152602001600020600080820160006101000a81549073ffffffffffffffffffffffffffffffffffffffff02191690556000820160146101000a8154906bffffffffffffffffffffffff0219169055505050565b6127108111156119ab576040517f08c379a00000000000000000000000000000000000000000000000000000000081526004016119a290612c36565b60405180910390fd5b60405180604001604052808373ffffffffffffffffffffffffffffffffffffffff1681526020018262ffffff166bffffffffffffffffffffffff16815250600860008201518160000160006101000a81548173ffffffffffffffffffffffffffffffffffffffff021916908373ffffffffffffffffffffffffffffffffffffffff16021790555060208201518160000160146101000a8154816bffffffffffffffffffffffff02191690836bffffffffffffffffffffffff1602179055509050505050565b8173ffffffffffffffffffffffffffffffffffffffff168373ffffffffffffffffffffffffffffffffffffffff161415611adf576040517f08c379a0000000000000000000000000000000000000000000000000000000008152600401611ad690612cd6565b60405180910390fd5b80600560008573ffffffffffffffffffffffffffffffffffffffff1673ffffffffffffffffffffffffffffffffffffffff16815260200190815260200160002060008473ffffffffffffffffffffffffffffffffffffffff1673ffffffffffffffffffffffffffffffffffffffff16815260200190815260200160002060006101000a81548160ff0219169083151502179055508173ffffffffffffffffffffffffffffffffffffffff168373ffffffffffffffffffffffffffffffffffffffff167f17307eab39ab6107e8899845ad3d59bd9653f200f220920489ca2b5937696c3183604051611bd09190612bf9565b60405180910390a3505050565b6006600080820160006101000a81549073ffffffffffffffffffffffffffffffffffffffff02191690556000820160146101000a8154906bffffffffffffffffffffffff02191690555050565b611c358484846113b4565b611c41848484846120ff565b611c80576040517f08c379a0000000000000000000000000000000000000000000000000000000008152600401611c7790612c56565b60405180910390fd5b50505050565b606060405180602001604052806000815250905090565b60606000821415611ce5576040518060400160405280600181526020017f30000000000000000000000000000000000000000000000000000000000000008152509050611e45565b600082905060005b60008214611d17578080611d00906131dc565b915050600a82611d109190612fec565b9150611ced565b60008167ffffffffffffffff811115611d59577f4e487b7100000000000000000000000000000000000000000000000000000000600052604160045260246000fd5b6040519080825280601f01601f191660200182016040528015611d8b5781602001600182028036833780820191505090505b5090505b60008514611e3e57600182611da49190613077565b9150600a85611db39190613225565b6030611dbf9190612f96565b60f81b818381518110611dfb577f4e487b7100000000000000000000000000000000000000000000000000000000600052603260045260246000fd5b60200101907effffffffffffffffffffffffffffffffffffffffffffffffffffffffffffff1916908160001a905350600a85611e379190612fec565b9450611d8f565b8093505050505b919050565b60007f80ac58cd000000000000000000000000000000000000000000000000000000007bffffffffffffffffffffffffffffffffffffffffffffffffffffffff1916827bffffffffffffffffffffffffffffffffffffffffffffffffffffffff19161480611f1557507f5b5e139f000000000000000000000000000000000000000000000000000000007bffffffffffffffffffffffffffffffffffffffffffffffffffffffff1916827bffffffffffffffffffffffffffffffffffffffffffffffffffffffff1916145b80611f255750611f2482612296565b5b9050919050565b505050565b600073ffffffffffffffffffffffffffffffffffffffff168273ffffffffffffffffffffffffffffffffffffffff161415611fa1576040517f08c379a0000000000000000000000000000000000000000000000000000000008152600401611f9890612d76565b60405180910390fd5b611faa816111a9565b15611fea576040517f08c379a0000000000000000000000000000000000000000000000000000000008152600401611fe190612c96565b60405180910390fd5b611ff660008383611f2c565b6001600360008473ffffffffffffffffffffffffffffffffffffffff1673ffffffffffffffffffffffffffffffffffffffff16815260200190815260200160002060008282546120469190612f96565b92505081905550816002600083815260200190815260200160002060006101000a81548173ffffffffffffffffffffffffffffffffffffffff021916908373ffffffffffffffffffffffffffffffffffffffff160217905550808273ffffffffffffffffffffffffffffffffffffffff16600073ffffffffffffffffffffffffffffffffffffffff167fddf252ad1be2c89b69c2b068fc378daa952ba7f163c4a11628f55a4df523b3ef60405160405180910390a45050565b60006121208473ffffffffffffffffffffffffffffffffffffffff16612300565b15612289578373ffffffffffffffffffffffffffffffffffffffff1663150b7a02612149611215565b8786866040518563ffffffff1660e01b815260040161216b9493929190612b84565b602060405180830381600087803b15801561218557600080fd5b505af19250505080156121b657506040513d601f19601f820116820180604052508101906121b391906126dc565b60015b612239573d80600081146121e6576040519150601f19603f3d011682016040523d82523d6000602084013e6121eb565b606091505b50600081511415612231576040517f08c379a000000000000000000000000000000000000000000000000000000000815260040161222890612c56565b60405180910390fd5b805181602001fd5b63150b7a0260e01b7bffffffffffffffffffffffffffffffffffffffffffffffffffffffff1916817bffffffffffffffffffffffffffffffffffffffffffffffffffffffff19161491505061228e565b600190505b949350505050565b60007f01ffc9a7000000000000000000000000000000000000000000000000000000007bffffffffffffffffffffffffffffffffffffffffffffffffffffffff1916827bffffffffffffffffffffffffffffffffffffffffffffffffffffffff1916149050919050565b600080823b905060008111915050919050565b600061232661232184612ef6565b612ed1565b9050808382526020820190508285602086028201111561234557600080fd5b60005b85811015612375578161235b88826123bd565b845260208401935060208301925050600181019050612348565b5050509392505050565b600061239261238d84612f22565b612ed1565b9050828152602081018484840111156123aa57600080fd5b6123b5848285613137565b509392505050565b6000813590506123cc81613845565b92915050565b600082601f8301126123e357600080fd5b81356123f3848260208601612313565b91505092915050565b60008135905061240b8161385c565b92915050565b60008135905061242081613873565b92915050565b60008151905061243581613873565b92915050565b600082601f83011261244c57600080fd5b813561245c84826020860161237f565b91505092915050565b6000813590506124748161388a565b92915050565b600081359050612489816138a1565b92915050565b6000602082840312156124a157600080fd5b60006124af848285016123bd565b91505092915050565b600080604083850312156124cb57600080fd5b60006124d9858286016123bd565b92505060206124ea858286016123bd565b9150509250929050565b60008060006060848603121561250957600080fd5b6000612517868287016123bd565b9350506020612528868287016123bd565b925050604061253986828701612465565b9150509250925092565b6000806000806080858703121561255957600080fd5b6000612567878288016123bd565b9450506020612578878288016123bd565b935050604061258987828801612465565b925050606085013567ffffffffffffffff8111156125a657600080fd5b6125b28782880161243b565b91505092959194509250565b600080604083850312156125d157600080fd5b60006125df858286016123bd565b92505060206125f0858286016123fc565b9150509250929050565b6000806040838503121561260d57600080fd5b600061261b858286016123bd565b925050602061262c85828601612465565b9150509250929050565b6000806040838503121561264957600080fd5b6000612657858286016123bd565b92505060206126688582860161247a565b9150509250929050565b60006020828403121561268457600080fd5b600082013567ffffffffffffffff81111561269e57600080fd5b6126aa848285016123d2565b91505092915050565b6000602082840312156126c557600080fd5b60006126d384828501612411565b91505092915050565b6000602082840312156126ee57600080fd5b60006126fc84828501612426565b91505092915050565b60006020828403121561271757600080fd5b600061272584828501612465565b91505092915050565b60008060006060848603121561274357600080fd5b600061275186828701612465565b9350506020612762868287016123bd565b92505060406127738682870161247a565b9150509250925092565b6000806040838503121561279057600080fd5b600061279e85828601612465565b92505060206127af85828601612465565b9150509250929050565b6127c2816130ab565b82525050565b6127d1816130bd565b82525050565b60006127e282612f53565b6127ec8185612f69565b93506127fc818560208601613146565b61280581613312565b840191505092915050565b600061281b82612f5e565b6128258185612f7a565b9350612835818560208601613146565b61283e81613312565b840191505092915050565b600061285482612f5e565b61285e8185612f8b565b935061286e818560208601613146565b80840191505092915050565b6000612887601a83612f7a565b915061289282613323565b602082019050919050565b60006128aa603283612f7a565b91506128b58261334c565b604082019050919050565b60006128cd602683612f7a565b91506128d88261339b565b604082019050919050565b60006128f0601c83612f7a565b91506128fb826133ea565b602082019050919050565b6000612913602483612f7a565b915061291e82613413565b604082019050919050565b6000612936601983612f7a565b915061294182613462565b602082019050919050565b6000612959602c83612f7a565b91506129648261348b565b604082019050919050565b600061297c603883612f7a565b9150612987826134da565b604082019050919050565b600061299f602a83612f7a565b91506129aa82613529565b604082019050919050565b60006129c2602983612f7a565b91506129cd82613578565b604082019050919050565b60006129e5602083612f7a565b91506129f0826135c7565b602082019050919050565b6000612a08602c83612f7a565b9150612a13826135f0565b604082019050919050565b6000612a2b602083612f7a565b9150612a368261363f565b602082019050919050565b6000612a4e602983612f7a565b9150612a5982613668565b604082019050919050565b6000612a71602f83612f7a565b9150612a7c826136b7565b604082019050919050565b6000612a94602183612f7a565b9150612a9f82613706565b604082019050919050565b6000612ab7603183612f7a565b9150612ac282613755565b604082019050919050565b6000612ada601b83612f7a565b9150612ae5826137a4565b602082019050919050565b6000612afd602a83612f7a565b9150612b08826137cd565b604082019050919050565b6000612b20601983612f7a565b9150612b2b8261381c565b602082019050919050565b612b3f81613115565b82525050565b6000612b518285612849565b9150612b5d8284612849565b91508190509392505050565b6000602082019050612b7e60008301846127b9565b92915050565b6000608082019050612b9960008301876127b9565b612ba660208301866127b9565b612bb36040830185612b36565b8181036060830152612bc581846127d7565b905095945050505050565b6000604082019050612be560008301856127b9565b612bf26020830184612b36565b9392505050565b6000602082019050612c0e60008301846127c8565b92915050565b60006020820190508181036000830152612c2e8184612810565b905092915050565b60006020820190508181036000830152612c4f8161287a565b9050919050565b60006020820190508181036000830152612c6f8161289d565b9050919050565b60006020820190508181036000830152612c8f816128c0565b9050919050565b60006020820190508181036000830152612caf816128e3565b9050919050565b60006020820190508181036000830152612ccf81612906565b9050919050565b60006020820190508181036000830152612cef81612929565b9050919050565b60006020820190508181036000830152612d0f8161294c565b9050919050565b60006020820190508181036000830152612d2f8161296f565b9050919050565b60006020820190508181036000830152612d4f81612992565b9050919050565b60006020820190508181036000830152612d6f816129b5565b9050919050565b60006020820190508181036000830152612d8f816129d8565b9050919050565b60006020820190508181036000830152612daf816129fb565b9050919050565b60006020820190508181036000830152612dcf81612a1e565b9050919050565b60006020820190508181036000830152612def81612a41565b9050919050565b60006020820190508181036000830152612e0f81612a64565b9050919050565b60006020820190508181036000830152612e2f81612a87565b9050919050565b60006020820190508181036000830152612e4f81612aaa565b9050919050565b60006020820190508181036000830152612e6f81612acd565b9050919050565b60006020820190508181036000830152612e8f81612af0565b9050919050565b60006020820190508181036000830152612eaf81612b13565b9050919050565b6000602082019050612ecb6000830184612b36565b92915050565b6000612edb612eec565b9050612ee782826131ab565b919050565b6000604051905090565b600067ffffffffffffffff821115612f1157612f106132e3565b5b602082029050602081019050919050565b600067ffffffffffffffff821115612f3d57612f3c6132e3565b5b612f4682613312565b9050602081019050919050565b600081519050919050565b600081519050919050565b600082825260208201905092915050565b600082825260208201905092915050565b600081905092915050565b6000612fa182613115565b9150612fac83613115565b9250827fffffffffffffffffffffffffffffffffffffffffffffffffffffffffffffffff03821115612fe157612fe0613256565b5b828201905092915050565b6000612ff782613115565b915061300283613115565b92508261301257613011613285565b5b828204905092915050565b600061302882613115565b915061303383613115565b9250817fffffffffffffffffffffffffffffffffffffffffffffffffffffffffffffffff048311821515161561306c5761306b613256565b5b828202905092915050565b600061308282613115565b915061308d83613115565b9250828210156130a05761309f613256565b5b828203905092915050565b60006130b6826130f5565b9050919050565b60008115159050919050565b60007fffffffff0000000000000000000000000000000000000000000000000000000082169050919050565b600073ffffffffffffffffffffffffffffffffffffffff82169050919050565b6000819050919050565b60006bffffffffffffffffffffffff82169050919050565b82818337600083830152505050565b60005b83811015613164578082015181840152602081019050613149565b83811115613173576000848401525b50505050565b6000600282049050600182168061319157607f821691505b602082108114156131a5576131a46132b4565b5b50919050565b6131b482613312565b810181811067ffffffffffffffff821117156131d3576131d26132e3565b5b80604052505050565b60006131e782613115565b91507fffffffffffffffffffffffffffffffffffffffffffffffffffffffffffffffff82141561321a57613219613256565b5b600182019050919050565b600061323082613115565b915061323b83613115565b92508261324b5761324a613285565b5b828206905092915050565b7f4e487b7100000000000000000000000000000000000000000000000000000000600052601160045260246000fd5b7f4e487b7100000000000000000000000000000000000000000000000000000000600052601260045260246000fd5b7f4e487b7100000000000000000000000000000000000000000000000000000000600052602260045260246000fd5b7f4e487b7100000000000000000000000000000000000000000000000000000000600052604160045260246000fd5b6000601f19601f8301169050919050565b7f45524332393831526f79616c746965733a20546f6f2068696768000000000000600082015250565b7f4552433732313a207472616e7366657220746f206e6f6e20455243373231526560008201527f63656976657220696d706c656d656e7465720000000000000000000000000000602082015250565b7f4f776e61626c653a206e6577206f776e657220697320746865207a65726f206160008201527f6464726573730000000000000000000000000000000000000000000000000000602082015250565b7f4552433732313a20746f6b656e20616c7265616479206d696e74656400000000600082015250565b7f4552433732313a207472616e7366657220746f20746865207a65726f2061646460008201527f7265737300000000000000000000000000000000000000000000000000000000602082015250565b7f4552433732313a20617070726f766520746f2063616c6c657200000000000000600082015250565b7f4552433732313a206f70657261746f7220717565727920666f72206e6f6e657860008201527f697374656e7420746f6b656e0000000000000000000000000000000000000000602082015250565b7f4552433732313a20617070726f76652063616c6c6572206973206e6f74206f7760008201527f6e6572206e6f7220617070726f76656420666f7220616c6c0000000000000000602082015250565b7f4552433732313a2062616c616e636520717565727920666f7220746865207a6560008201527f726f206164647265737300000000000000000000000000000000000000000000602082015250565b7f4552433732313a206f776e657220717565727920666f72206e6f6e657869737460008201527f656e7420746f6b656e0000000000000000000000000000000000000000000000602082015250565b7f4552433732313a206d696e7420746f20746865207a65726f2061646472657373600082015250565b7f4552433732313a20617070726f76656420717565727920666f72206e6f6e657860008201527f697374656e7420746f6b656e0000000000000000000000000000000000000000602082015250565b7f4f776e61626c653a2063616c6c6572206973206e6f7420746865206f776e6572600082015250565b7f4552433732313a207472616e73666572206f6620746f6b656e2074686174206960008201527f73206e6f74206f776e0000000000000000000000000000000000000000000000602082015250565b7f4552433732314d657461646174613a2055524920717565727920666f72206e6f60008201527f6e6578697374656e7420746f6b656e0000000000000000000000000000000000602082015250565b7f4552433732313a20617070726f76616c20746f2063757272656e74206f776e6560008201527f7200000000000000000000000000000000000000000000000000000000000000602082015250565b7f4552433732313a207472616e736665722063616c6c6572206973206e6f74206f60008201527f776e6572206e6f7220617070726f766564000000000000000000000000000000602082015250565b7f455243323938313a20496e76616c696420706172616d65746572730000000000600082015250565b7f455243323938313a20726f79616c7479206665652077696c6c2065786365656460008201527f2073616c65507269636500000000000000000000000000000000000000000000602082015250565b7f455243323938313a20696e76616c696420726563656976657200000000000000600082015250565b61384e816130ab565b811461385957600080fd5b50565b613865816130bd565b811461387057600080fd5b50565b61387c816130c9565b811461388757600080fd5b50565b61389381613115565b811461389e57600080fd5b50565b6138aa8161311f565b81146138b557600080fd5b5056fea2646970667358221220ec452002300c0989a604c75717fc517ec5dfca99976ea729147bb7e100b84bbf64736f6c63430008040033",
  "immutableReferences": {},
  "source": "//SPDX-License-Identifier: MIT\n// Adapted from https://github.com/dievardump/EIP2981-implementation\n\npragma solidity ^0.8.4;\n\nimport \"./ERC2981.sol\";\nimport \"@openzeppelin/contracts/token/ERC721/ERC721.sol\";\nimport \"@openzeppelin/contracts/access/Ownable.sol\";\nimport \"@openzeppelin/contracts/utils/Counters.sol\";\n\ncontract ERC721ContractWideRoyalties is ERC721, ERC2981, Ownable {\n    /// @notice _tokenIds to keep track of the number of NFTs minted\n    using Counters for Counters.Counter;\n    Counters.Counter private _tokenIds;\n\n    constructor(string memory name_, string memory symbol_)\n        ERC721(name_, symbol_)\n    {}\n\n    /// @inheritdoc ERC165\n    function supportsInterface(bytes4 interfaceId)\n        public\n        view\n        virtual\n        override(ERC721, ERC2981)\n        returns (bool)\n    {\n        return super.supportsInterface(interfaceId);\n    }\n\n    /// @notice Allows to set the royalties on the contract\n    /// @dev This function in a real contract should be protected with a onlyOwner (or equivalent) modifier\n    /// @param recipient the royalties recipient\n    /// @param value royalties value (between 0 and 10000)\n    function setRoyalties(address recipient, uint256 value) public {\n        _setRoyalties(recipient, value);\n    }\n\n    function setDefaultRoyalty(address receiver, uint96 feeNumerator) public {\n        _setDefaultRoyalty(receiver, feeNumerator);\n    }\n\n    function setTokenRoyalty(\n        uint256 tokenId,\n        address receiver,\n        uint96 feeNumerator\n    ) public {\n        _setTokenRoyalty(tokenId, receiver, feeNumerator);\n    }\n\n    function deleteDefaultRoyalty() public {\n        _deleteDefaultRoyalty();\n    }\n\n    function resetTokenRoyalty(uint tokenId) public {\n        _resetTokenRoyalty(tokenId);\n    }\n\n    /// @notice Mint one token to `to`\n    /// @param to the recipient of the token\n    function mint(address to) external returns (uint256 _tokenId) {\n        uint256 tokenId = _tokenIds.current();\n        _safeMint(to, tokenId, \"\");\n        _tokenIds.increment();\n        return tokenId;\n    }\n\n    /// @notice Mint several tokens at once\n    /// @param recipients an array of recipients for each token\n    function mintBatch(address[] memory recipients) external {\n        uint256 tokenId = _tokenIds.current();\n        for (uint256 i; i < recipients.length; i++) {\n            _safeMint(recipients[i], tokenId, \"\");\n            _tokenIds.increment();\n        }\n    }\n}\n",
  "sourcePath": "/Users/thryec/Desktop/Klaytn/Dev/eip-testing-truffle/contracts/ERC721ContractWideRoyalties.sol",
  "compiler": {
    "name": "solc",
    "version": "0.8.4+commit.c7e474f2.Emscripten.clang"
  },
  "schemaVersion": "3.3.3",
  "updatedAt": "2022-01-18T07:18:01.557Z",
  "devdoc": {
    "kind": "dev",
    "methods": {
      "approve(address,uint256)": {
        "details": "See {IERC721-approve}."
      },
      "balanceOf(address)": {
        "details": "See {IERC721-balanceOf}."
      },
      "getApproved(uint256)": {
        "details": "See {IERC721-getApproved}."
      },
      "isApprovedForAll(address,address)": {
        "details": "See {IERC721-isApprovedForAll}."
      },
      "mint(address)": {
        "params": {
          "to": "the recipient of the token"
        }
      },
      "mintBatch(address[])": {
        "params": {
          "recipients": "an array of recipients for each token"
        }
      },
      "name()": {
        "details": "See {IERC721Metadata-name}."
      },
      "owner()": {
        "details": "Returns the address of the current owner."
      },
      "ownerOf(uint256)": {
        "details": "See {IERC721-ownerOf}."
      },
      "renounceOwnership()": {
        "details": "Leaves the contract without owner. It will not be possible to call `onlyOwner` functions anymore. Can only be called by the current owner. NOTE: Renouncing ownership will leave the contract without an owner, thereby removing any functionality that is only available to the owner."
      },
      "royaltyInfo(uint256,uint256)": {
        "details": "Called with the sale price to determine how much royalty is owed and to whom.",
        "params": {
          "salePrice": "- the sale price of the NFT asset specified by `tokenId`",
          "tokenId": "- the NFT asset queried for royalty information"
        },
        "returns": {
          "_0": "- address of who should be sent the royalty payment",
          "_1": "- the royalty payment amount for `salePrice`"
        }
      },
      "safeTransferFrom(address,address,uint256)": {
        "details": "See {IERC721-safeTransferFrom}."
      },
      "safeTransferFrom(address,address,uint256,bytes)": {
        "details": "See {IERC721-safeTransferFrom}."
      },
      "setApprovalForAll(address,bool)": {
        "details": "See {IERC721-setApprovalForAll}."
      },
      "setRoyalties(address,uint256)": {
        "details": "This function in a real contract should be protected with a onlyOwner (or equivalent) modifier",
        "params": {
          "recipient": "the royalties recipient",
          "value": "royalties value (between 0 and 10000)"
        }
      },
      "supportsInterface(bytes4)": {
        "details": "See {IERC165-supportsInterface}."
      },
      "symbol()": {
        "details": "See {IERC721Metadata-symbol}."
      },
      "tokenURI(uint256)": {
        "details": "See {IERC721Metadata-tokenURI}."
      },
      "transferFrom(address,address,uint256)": {
        "details": "See {IERC721-transferFrom}."
      },
      "transferOwnership(address)": {
        "details": "Transfers ownership of the contract to a new account (`newOwner`). Can only be called by the current owner."
      }
    },
    "version": 1
  },
  "userdoc": {
    "kind": "user",
    "methods": {
      "mint(address)": {
        "notice": "Mint one token to `to`"
      },
      "mintBatch(address[])": {
        "notice": "Mint several tokens at once"
      },
      "setRoyalties(address,uint256)": {
        "notice": "Allows to set the royalties on the contract"
      }
    },
    "version": 1
  }
}