{
  "contractName": "ERC721WithRoyalties",
  "abi": [
    {
      "inputs": [
        {
          "internalType": "string",
          "name": "name_",
          "type": "string"
        },
        {
          "internalType": "string",
          "name": "symbol_",
          "type": "string"
        }
      ],
      "stateMutability": "nonpayable",
      "type": "constructor"
    },
    {
      "anonymous": false,
      "inputs": [
        {
          "indexed": true,
          "internalType": "address",
          "name": "owner",
          "type": "address"
        },
        {
          "indexed": true,
          "internalType": "address",
          "name": "approved",
          "type": "address"
        },
        {
          "indexed": true,
          "internalType": "uint256",
          "name": "tokenId",
          "type": "uint256"
        }
      ],
      "name": "Approval",
      "type": "event"
    },
    {
      "anonymous": false,
      "inputs": [
        {
          "indexed": true,
          "internalType": "address",
          "name": "owner",
          "type": "address"
        },
        {
          "indexed": true,
          "internalType": "address",
          "name": "operator",
          "type": "address"
        },
        {
          "indexed": false,
          "internalType": "bool",
          "name": "approved",
          "type": "bool"
        }
      ],
      "name": "ApprovalForAll",
      "type": "event"
    },
    {
      "anonymous": false,
      "inputs": [
        {
          "indexed": true,
          "internalType": "address",
          "name": "from",
          "type": "address"
        },
        {
          "indexed": true,
          "internalType": "address",
          "name": "to",
          "type": "address"
        },
        {
          "indexed": true,
          "internalType": "uint256",
          "name": "tokenId",
          "type": "uint256"
        }
      ],
      "name": "Transfer",
      "type": "event"
    },
    {
      "inputs": [
        {
          "internalType": "address",
          "name": "to",
          "type": "address"
        },
        {
          "internalType": "uint256",
          "name": "tokenId",
          "type": "uint256"
        }
      ],
      "name": "approve",
      "outputs": [],
      "stateMutability": "nonpayable",
      "type": "function"
    },
    {
      "inputs": [
        {
          "internalType": "address",
          "name": "owner",
          "type": "address"
        }
      ],
      "name": "balanceOf",
      "outputs": [
        {
          "internalType": "uint256",
          "name": "",
          "type": "uint256"
        }
      ],
      "stateMutability": "view",
      "type": "function"
    },
    {
      "inputs": [
        {
          "internalType": "uint256",
          "name": "tokenId",
          "type": "uint256"
        }
      ],
      "name": "getApproved",
      "outputs": [
        {
          "internalType": "address",
          "name": "",
          "type": "address"
        }
      ],
      "stateMutability": "view",
      "type": "function"
    },
    {
      "inputs": [
        {
          "internalType": "address",
          "name": "owner",
          "type": "address"
        },
        {
          "internalType": "address",
          "name": "operator",
          "type": "address"
        }
      ],
      "name": "isApprovedForAll",
      "outputs": [
        {
          "internalType": "bool",
          "name": "",
          "type": "bool"
        }
      ],
      "stateMutability": "view",
      "type": "function"
    },
    {
      "inputs": [],
      "name": "name",
      "outputs": [
        {
          "internalType": "string",
          "name": "",
          "type": "string"
        }
      ],
      "stateMutability": "view",
      "type": "function"
    },
    {
      "inputs": [
        {
          "internalType": "uint256",
          "name": "tokenId",
          "type": "uint256"
        }
      ],
      "name": "ownerOf",
      "outputs": [
        {
          "internalType": "address",
          "name": "",
          "type": "address"
        }
      ],
      "stateMutability": "view",
      "type": "function"
    },
    {
      "inputs": [
        {
          "internalType": "uint256",
          "name": "tokenId",
          "type": "uint256"
        },
        {
          "internalType": "uint256",
          "name": "value",
          "type": "uint256"
        }
      ],
      "name": "royaltyInfo",
      "outputs": [
        {
          "internalType": "address",
          "name": "receiver",
          "type": "address"
        },
        {
          "internalType": "uint256",
          "name": "royaltyAmount",
          "type": "uint256"
        }
      ],
      "stateMutability": "view",
      "type": "function"
    },
    {
      "inputs": [
        {
          "internalType": "address",
          "name": "from",
          "type": "address"
        },
        {
          "internalType": "address",
          "name": "to",
          "type": "address"
        },
        {
          "internalType": "uint256",
          "name": "tokenId",
          "type": "uint256"
        }
      ],
      "name": "safeTransferFrom",
      "outputs": [],
      "stateMutability": "nonpayable",
      "type": "function"
    },
    {
      "inputs": [
        {
          "internalType": "address",
          "name": "from",
          "type": "address"
        },
        {
          "internalType": "address",
          "name": "to",
          "type": "address"
        },
        {
          "internalType": "uint256",
          "name": "tokenId",
          "type": "uint256"
        },
        {
          "internalType": "bytes",
          "name": "_data",
          "type": "bytes"
        }
      ],
      "name": "safeTransferFrom",
      "outputs": [],
      "stateMutability": "nonpayable",
      "type": "function"
    },
    {
      "inputs": [
        {
          "internalType": "address",
          "name": "operator",
          "type": "address"
        },
        {
          "internalType": "bool",
          "name": "approved",
          "type": "bool"
        }
      ],
      "name": "setApprovalForAll",
      "outputs": [],
      "stateMutability": "nonpayable",
      "type": "function"
    },
    {
      "inputs": [],
      "name": "symbol",
      "outputs": [
        {
          "internalType": "string",
          "name": "",
          "type": "string"
        }
      ],
      "stateMutability": "view",
      "type": "function"
    },
    {
      "inputs": [
        {
          "internalType": "uint256",
          "name": "tokenId",
          "type": "uint256"
        }
      ],
      "name": "tokenURI",
      "outputs": [
        {
          "internalType": "string",
          "name": "",
          "type": "string"
        }
      ],
      "stateMutability": "view",
      "type": "function"
    },
    {
      "inputs": [
        {
          "internalType": "address",
          "name": "from",
          "type": "address"
        },
        {
          "internalType": "address",
          "name": "to",
          "type": "address"
        },
        {
          "internalType": "uint256",
          "name": "tokenId",
          "type": "uint256"
        }
      ],
      "name": "transferFrom",
      "outputs": [],
      "stateMutability": "nonpayable",
      "type": "function"
    },
    {
      "inputs": [
        {
          "internalType": "bytes4",
          "name": "interfaceId",
          "type": "bytes4"
        }
      ],
      "name": "supportsInterface",
      "outputs": [
        {
          "internalType": "bool",
          "name": "",
          "type": "bool"
        }
      ],
      "stateMutability": "view",
      "type": "function"
    },
    {
      "inputs": [
        {
          "internalType": "address",
          "name": "to",
          "type": "address"
        },
        {
          "internalType": "address",
          "name": "royaltyRecipient",
          "type": "address"
        },
        {
          "internalType": "uint256",
          "name": "royaltyValue",
          "type": "uint256"
        }
      ],
      "name": "mint",
      "outputs": [],
      "stateMutability": "nonpayable",
      "type": "function"
    },
    {
      "inputs": [
        {
          "internalType": "address[]",
          "name": "recipients",
          "type": "address[]"
        },
        {
          "internalType": "address[]",
          "name": "royaltyRecipients",
          "type": "address[]"
        },
        {
          "internalType": "uint256[]",
          "name": "royaltyValues",
          "type": "uint256[]"
        }
      ],
      "name": "mintBatch",
      "outputs": [],
      "stateMutability": "nonpayable",
      "type": "function"
    }
  ],
  "bytecode": "0x60806040523480156200001157600080fd5b506040516200332c3803806200332c833981810160405281019062000037919062000197565b818181600090805190602001906200005192919062000075565b5080600190805190602001906200006a92919062000075565b50505050506200037a565b82805462000083906200029f565b90600052602060002090601f016020900481019282620000a75760008555620000f3565b82601f10620000c257805160ff1916838001178555620000f3565b82800160010185558215620000f3579182015b82811115620000f2578251825591602001919060010190620000d5565b5b50905062000102919062000106565b5090565b5b808211156200012157600081600090555060010162000107565b5090565b60006200013c620001368462000233565b6200020a565b9050828152602081018484840111156200015557600080fd5b6200016284828562000269565b509392505050565b600082601f8301126200017c57600080fd5b81516200018e84826020860162000125565b91505092915050565b60008060408385031215620001ab57600080fd5b600083015167ffffffffffffffff811115620001c657600080fd5b620001d4858286016200016a565b925050602083015167ffffffffffffffff811115620001f257600080fd5b62000200858286016200016a565b9150509250929050565b60006200021662000229565b9050620002248282620002d5565b919050565b6000604051905090565b600067ffffffffffffffff8211156200025157620002506200033a565b5b6200025c8262000369565b9050602081019050919050565b60005b83811015620002895780820151818401526020810190506200026c565b8381111562000299576000848401525b50505050565b60006002820490506001821680620002b857607f821691505b60208210811415620002cf57620002ce6200030b565b5b50919050565b620002e08262000369565b810181811067ffffffffffffffff821117156200030257620003016200033a565b5b80604052505050565b7f4e487b7100000000000000000000000000000000000000000000000000000000600052602260045260246000fd5b7f4e487b7100000000000000000000000000000000000000000000000000000000600052604160045260246000fd5b6000601f19601f8301169050919050565b612fa2806200038a6000396000f3fe608060405234801561001057600080fd5b50600436106101005760003560e01c806370a0823111610097578063c6c3bbe611610066578063c6c3bbe6146102be578063c87b56dd146102da578063ccee286d1461030a578063e985e9c51461032657610100565b806370a082311461023857806395d89b4114610268578063a22cb46514610286578063b88d4fde146102a257610100565b806323b872dd116100d357806323b872dd1461019f5780632a55205a146101bb57806342842e0e146101ec5780636352211e1461020857610100565b806301ffc9a71461010557806306fdde0314610135578063081812fc14610153578063095ea7b314610183575b600080fd5b61011f600480360381019061011a9190611fb5565b610356565b60405161012c9190612420565b60405180910390f35b61013d610368565b60405161014a919061243b565b60405180910390f35b61016d60048036038101906101689190612007565b6103fa565b60405161017a9190612390565b60405180910390f35b61019d60048036038101906101989190611ee2565b61047f565b005b6101b960048036038101906101b49190611ddc565b610597565b005b6101d560048036038101906101d09190612030565b6105f7565b6040516101e39291906123f7565b60405180910390f35b61020660048036038101906102019190611ddc565b6106ec565b005b610222600480360381019061021d9190612007565b61070c565b60405161022f9190612390565b60405180910390f35b610252600480360381019061024d9190611d77565b6107be565b60405161025f919061265d565b60405180910390f35b610270610876565b60405161027d919061243b565b60405180910390f35b6102a0600480360381019061029b9190611ea6565b610908565b005b6102bc60048036038101906102b79190611e2b565b61091e565b005b6102d860048036038101906102d39190611ddc565b610980565b005b6102f460048036038101906102ef9190612007565b6109cf565b604051610301919061243b565b60405180910390f35b610324600480360381019061031f9190611f1e565b610a76565b005b610340600480360381019061033b9190611da0565b610c38565b60405161034d9190612420565b60405180910390f35b600061036182610ccc565b9050919050565b60606000805461037790612934565b80601f01602080910402602001604051908101604052809291908181526020018280546103a390612934565b80156103f05780601f106103c5576101008083540402835291602001916103f0565b820191906000526020600020905b8154815290600101906020018083116103d357829003601f168201915b5050505050905090565b600061040582610d46565b610444576040517f08c379a000000000000000000000000000000000000000000000000000000000815260040161043b906125bd565b60405180910390fd5b6004600083815260200190815260200160002060009054906101000a900473ffffffffffffffffffffffffffffffffffffffff169050919050565b600061048a8261070c565b90508073ffffffffffffffffffffffffffffffffffffffff168373ffffffffffffffffffffffffffffffffffffffff1614156104fb576040517f08c379a00000000000000000000000000000000000000000000000000000000081526004016104f29061261d565b60405180910390fd5b8073ffffffffffffffffffffffffffffffffffffffff1661051a610db2565b73ffffffffffffffffffffffffffffffffffffffff161480610549575061054881610543610db2565b610c38565b5b610588576040517f08c379a000000000000000000000000000000000000000000000000000000000815260040161057f9061251d565b60405180910390fd5b6105928383610dba565b505050565b6105a86105a2610db2565b82610e73565b6105e7576040517f08c379a00000000000000000000000000000000000000000000000000000000081526004016105de9061263d565b60405180910390fd5b6105f2838383610f51565b505050565b6000806000600960008681526020019081526020016000206040518060400160405290816000820160009054906101000a900473ffffffffffffffffffffffffffffffffffffffff1673ffffffffffffffffffffffffffffffffffffffff1673ffffffffffffffffffffffffffffffffffffffff1681526020016000820160149054906101000a90046bffffffffffffffffffffffff166bffffffffffffffffffffffff166bffffffffffffffffffffffff168152505090508060000151925061271081602001516bffffffffffffffffffffffff16856106d891906127f0565b6106e291906127bf565b9150509250929050565b6107078383836040518060200160405280600081525061091e565b505050565b6000806002600084815260200190815260200160002060009054906101000a900473ffffffffffffffffffffffffffffffffffffffff169050600073ffffffffffffffffffffffffffffffffffffffff168173ffffffffffffffffffffffffffffffffffffffff1614156107b5576040517f08c379a00000000000000000000000000000000000000000000000000000000081526004016107ac9061255d565b60405180910390fd5b80915050919050565b60008073ffffffffffffffffffffffffffffffffffffffff168273ffffffffffffffffffffffffffffffffffffffff16141561082f576040517f08c379a00000000000000000000000000000000000000000000000000000000081526004016108269061253d565b60405180910390fd5b600360008373ffffffffffffffffffffffffffffffffffffffff1673ffffffffffffffffffffffffffffffffffffffff168152602001908152602001600020549050919050565b60606001805461088590612934565b80601f01602080910402602001604051908101604052809291908181526020018280546108b190612934565b80156108fe5780601f106108d3576101008083540402835291602001916108fe565b820191906000526020600020905b8154815290600101906020018083116108e157829003601f168201915b5050505050905090565b61091a610913610db2565b83836111ad565b5050565b61092f610929610db2565b83610e73565b61096e576040517f08c379a00000000000000000000000000000000000000000000000000000000081526004016109659061263d565b60405180910390fd5b61097a8484848461131a565b50505050565b6000600a5490506109a1848260405180602001604052806000815250611376565b60008211156109b6576109b58184846113d1565b5b6001816109c39190612769565b600a8190555050505050565b60606109da82610d46565b610a19576040517f08c379a0000000000000000000000000000000000000000000000000000000008152600401610a10906125fd565b60405180910390fd5b6000610a236114ed565b90506000815111610a435760405180602001604052806000815250610a6e565b80610a4d84611504565b604051602001610a5e92919061236c565b6040516020818303038152906040525b915050919050565b6000600a54905082518451148015610a8f575081518451145b610ace576040517f08c379a0000000000000000000000000000000000000000000000000000000008152600401610ac59061259d565b60405180910390fd5b60005b8451811015610c2a57610b34858281518110610b16577f4e487b7100000000000000000000000000000000000000000000000000000000600052603260045260246000fd5b60200260200101518360405180602001604052806000815250611376565b6000838281518110610b6f577f4e487b7100000000000000000000000000000000000000000000000000000000600052603260045260246000fd5b60200260200101511115610c0957610c0882858381518110610bba577f4e487b7100000000000000000000000000000000000000000000000000000000600052603260045260246000fd5b6020026020010151858481518110610bfb577f4e487b7100000000000000000000000000000000000000000000000000000000600052603260045260246000fd5b60200260200101516113d1565b5b8180610c1490612997565b9250508080610c2290612997565b915050610ad1565b5080600a8190555050505050565b6000600560008473ffffffffffffffffffffffffffffffffffffffff1673ffffffffffffffffffffffffffffffffffffffff16815260200190815260200160002060008373ffffffffffffffffffffffffffffffffffffffff1673ffffffffffffffffffffffffffffffffffffffff16815260200190815260200160002060009054906101000a900460ff16905092915050565b60007f2a55205a000000000000000000000000000000000000000000000000000000007bffffffffffffffffffffffffffffffffffffffffffffffffffffffff1916827bffffffffffffffffffffffffffffffffffffffffffffffffffffffff19161480610d3f5750610d3e826116b1565b5b9050919050565b60008073ffffffffffffffffffffffffffffffffffffffff166002600084815260200190815260200160002060009054906101000a900473ffffffffffffffffffffffffffffffffffffffff1673ffffffffffffffffffffffffffffffffffffffff1614159050919050565b600033905090565b816004600083815260200190815260200160002060006101000a81548173ffffffffffffffffffffffffffffffffffffffff021916908373ffffffffffffffffffffffffffffffffffffffff160217905550808273ffffffffffffffffffffffffffffffffffffffff16610e2d8361070c565b73ffffffffffffffffffffffffffffffffffffffff167f8c5be1e5ebec7d5bd14f71427d1e84f3dd0314c0f7b2291e5b200ac8c7c3b92560405160405180910390a45050565b6000610e7e82610d46565b610ebd576040517f08c379a0000000000000000000000000000000000000000000000000000000008152600401610eb4906124fd565b60405180910390fd5b6000610ec88361070c565b90508073ffffffffffffffffffffffffffffffffffffffff168473ffffffffffffffffffffffffffffffffffffffff161480610f3757508373ffffffffffffffffffffffffffffffffffffffff16610f1f846103fa565b73ffffffffffffffffffffffffffffffffffffffff16145b80610f485750610f478185610c38565b5b91505092915050565b8273ffffffffffffffffffffffffffffffffffffffff16610f718261070c565b73ffffffffffffffffffffffffffffffffffffffff1614610fc7576040517f08c379a0000000000000000000000000000000000000000000000000000000008152600401610fbe906125dd565b60405180910390fd5b600073ffffffffffffffffffffffffffffffffffffffff168273ffffffffffffffffffffffffffffffffffffffff161415611037576040517f08c379a000000000000000000000000000000000000000000000000000000000815260040161102e906124bd565b60405180910390fd5b611042838383611793565b61104d600082610dba565b6001600360008573ffffffffffffffffffffffffffffffffffffffff1673ffffffffffffffffffffffffffffffffffffffff168152602001908152602001600020600082825461109d919061284a565b925050819055506001600360008473ffffffffffffffffffffffffffffffffffffffff1673ffffffffffffffffffffffffffffffffffffffff16815260200190815260200160002060008282546110f49190612769565b92505081905550816002600083815260200190815260200160002060006101000a81548173ffffffffffffffffffffffffffffffffffffffff021916908373ffffffffffffffffffffffffffffffffffffffff160217905550808273ffffffffffffffffffffffffffffffffffffffff168473ffffffffffffffffffffffffffffffffffffffff167fddf252ad1be2c89b69c2b068fc378daa952ba7f163c4a11628f55a4df523b3ef60405160405180910390a4505050565b8173ffffffffffffffffffffffffffffffffffffffff168373ffffffffffffffffffffffffffffffffffffffff16141561121c576040517f08c379a0000000000000000000000000000000000000000000000000000000008152600401611213906124dd565b60405180910390fd5b80600560008573ffffffffffffffffffffffffffffffffffffffff1673ffffffffffffffffffffffffffffffffffffffff16815260200190815260200160002060008473ffffffffffffffffffffffffffffffffffffffff1673ffffffffffffffffffffffffffffffffffffffff16815260200190815260200160002060006101000a81548160ff0219169083151502179055508173ffffffffffffffffffffffffffffffffffffffff168373ffffffffffffffffffffffffffffffffffffffff167f17307eab39ab6107e8899845ad3d59bd9653f200f220920489ca2b5937696c318360405161130d9190612420565b60405180910390a3505050565b611325848484610f51565b61133184848484611798565b611370576040517f08c379a00000000000000000000000000000000000000000000000000000000081526004016113679061247d565b60405180910390fd5b50505050565b611380838361192f565b61138d6000848484611798565b6113cc576040517f08c379a00000000000000000000000000000000000000000000000000000000081526004016113c39061247d565b60405180910390fd5b505050565b612710811115611416576040517f08c379a000000000000000000000000000000000000000000000000000000000815260040161140d9061245d565b60405180910390fd5b60405180604001604052808373ffffffffffffffffffffffffffffffffffffffff1681526020018262ffffff166bffffffffffffffffffffffff168152506009600085815260200190815260200160002060008201518160000160006101000a81548173ffffffffffffffffffffffffffffffffffffffff021916908373ffffffffffffffffffffffffffffffffffffffff16021790555060208201518160000160146101000a8154816bffffffffffffffffffffffff02191690836bffffffffffffffffffffffff160217905550905050505050565b606060405180602001604052806000815250905090565b6060600082141561154c576040518060400160405280600181526020017f300000000000000000000000000000000000000000000000000000000000000081525090506116ac565b600082905060005b6000821461157e57808061156790612997565b915050600a8261157791906127bf565b9150611554565b60008167ffffffffffffffff8111156115c0577f4e487b7100000000000000000000000000000000000000000000000000000000600052604160045260246000fd5b6040519080825280601f01601f1916602001820160405280156115f25781602001600182028036833780820191505090505b5090505b600085146116a55760018261160b919061284a565b9150600a8561161a91906129e0565b60306116269190612769565b60f81b818381518110611662577f4e487b7100000000000000000000000000000000000000000000000000000000600052603260045260246000fd5b60200101907effffffffffffffffffffffffffffffffffffffffffffffffffffffffffffff1916908160001a905350600a8561169e91906127bf565b94506115f6565b8093505050505b919050565b60007f80ac58cd000000000000000000000000000000000000000000000000000000007bffffffffffffffffffffffffffffffffffffffffffffffffffffffff1916827bffffffffffffffffffffffffffffffffffffffffffffffffffffffff1916148061177c57507f5b5e139f000000000000000000000000000000000000000000000000000000007bffffffffffffffffffffffffffffffffffffffffffffffffffffffff1916827bffffffffffffffffffffffffffffffffffffffffffffffffffffffff1916145b8061178c575061178b82611afd565b5b9050919050565b505050565b60006117b98473ffffffffffffffffffffffffffffffffffffffff16611b67565b15611922578373ffffffffffffffffffffffffffffffffffffffff1663150b7a026117e2610db2565b8786866040518563ffffffff1660e01b815260040161180494939291906123ab565b602060405180830381600087803b15801561181e57600080fd5b505af192505050801561184f57506040513d601f19601f8201168201806040525081019061184c9190611fde565b60015b6118d2573d806000811461187f576040519150601f19603f3d011682016040523d82523d6000602084013e611884565b606091505b506000815114156118ca576040517f08c379a00000000000000000000000000000000000000000000000000000000081526004016118c19061247d565b60405180910390fd5b805181602001fd5b63150b7a0260e01b7bffffffffffffffffffffffffffffffffffffffffffffffffffffffff1916817bffffffffffffffffffffffffffffffffffffffffffffffffffffffff191614915050611927565b600190505b949350505050565b600073ffffffffffffffffffffffffffffffffffffffff168273ffffffffffffffffffffffffffffffffffffffff16141561199f576040517f08c379a00000000000000000000000000000000000000000000000000000000081526004016119969061257d565b60405180910390fd5b6119a881610d46565b156119e8576040517f08c379a00000000000000000000000000000000000000000000000000000000081526004016119df9061249d565b60405180910390fd5b6119f460008383611793565b6001600360008473ffffffffffffffffffffffffffffffffffffffff1673ffffffffffffffffffffffffffffffffffffffff1681526020019081526020016000206000828254611a449190612769565b92505081905550816002600083815260200190815260200160002060006101000a81548173ffffffffffffffffffffffffffffffffffffffff021916908373ffffffffffffffffffffffffffffffffffffffff160217905550808273ffffffffffffffffffffffffffffffffffffffff16600073ffffffffffffffffffffffffffffffffffffffff167fddf252ad1be2c89b69c2b068fc378daa952ba7f163c4a11628f55a4df523b3ef60405160405180910390a45050565b60007f01ffc9a7000000000000000000000000000000000000000000000000000000007bffffffffffffffffffffffffffffffffffffffffffffffffffffffff1916827bffffffffffffffffffffffffffffffffffffffffffffffffffffffff1916149050919050565b600080823b905060008111915050919050565b6000611b8d611b888461269d565b612678565b90508083825260208201905082856020860282011115611bac57600080fd5b60005b85811015611bdc5781611bc28882611c90565b845260208401935060208301925050600181019050611baf565b5050509392505050565b6000611bf9611bf4846126c9565b612678565b90508083825260208201905082856020860282011115611c1857600080fd5b60005b85811015611c485781611c2e8882611d62565b845260208401935060208301925050600181019050611c1b565b5050509392505050565b6000611c65611c60846126f5565b612678565b905082815260208101848484011115611c7d57600080fd5b611c888482856128f2565b509392505050565b600081359050611c9f81612f10565b92915050565b600082601f830112611cb657600080fd5b8135611cc6848260208601611b7a565b91505092915050565b600082601f830112611ce057600080fd5b8135611cf0848260208601611be6565b91505092915050565b600081359050611d0881612f27565b92915050565b600081359050611d1d81612f3e565b92915050565b600081519050611d3281612f3e565b92915050565b600082601f830112611d4957600080fd5b8135611d59848260208601611c52565b91505092915050565b600081359050611d7181612f55565b92915050565b600060208284031215611d8957600080fd5b6000611d9784828501611c90565b91505092915050565b60008060408385031215611db357600080fd5b6000611dc185828601611c90565b9250506020611dd285828601611c90565b9150509250929050565b600080600060608486031215611df157600080fd5b6000611dff86828701611c90565b9350506020611e1086828701611c90565b9250506040611e2186828701611d62565b9150509250925092565b60008060008060808587031215611e4157600080fd5b6000611e4f87828801611c90565b9450506020611e6087828801611c90565b9350506040611e7187828801611d62565b925050606085013567ffffffffffffffff811115611e8e57600080fd5b611e9a87828801611d38565b91505092959194509250565b60008060408385031215611eb957600080fd5b6000611ec785828601611c90565b9250506020611ed885828601611cf9565b9150509250929050565b60008060408385031215611ef557600080fd5b6000611f0385828601611c90565b9250506020611f1485828601611d62565b9150509250929050565b600080600060608486031215611f3357600080fd5b600084013567ffffffffffffffff811115611f4d57600080fd5b611f5986828701611ca5565b935050602084013567ffffffffffffffff811115611f7657600080fd5b611f8286828701611ca5565b925050604084013567ffffffffffffffff811115611f9f57600080fd5b611fab86828701611ccf565b9150509250925092565b600060208284031215611fc757600080fd5b6000611fd584828501611d0e565b91505092915050565b600060208284031215611ff057600080fd5b6000611ffe84828501611d23565b91505092915050565b60006020828403121561201957600080fd5b600061202784828501611d62565b91505092915050565b6000806040838503121561204357600080fd5b600061205185828601611d62565b925050602061206285828601611d62565b9150509250929050565b6120758161287e565b82525050565b61208481612890565b82525050565b600061209582612726565b61209f818561273c565b93506120af818560208601612901565b6120b881612acd565b840191505092915050565b60006120ce82612731565b6120d8818561274d565b93506120e8818560208601612901565b6120f181612acd565b840191505092915050565b600061210782612731565b612111818561275e565b9350612121818560208601612901565b80840191505092915050565b600061213a601a8361274d565b915061214582612ade565b602082019050919050565b600061215d60328361274d565b915061216882612b07565b604082019050919050565b6000612180601c8361274d565b915061218b82612b56565b602082019050919050565b60006121a360248361274d565b91506121ae82612b7f565b604082019050919050565b60006121c660198361274d565b91506121d182612bce565b602082019050919050565b60006121e9602c8361274d565b91506121f482612bf7565b604082019050919050565b600061220c60388361274d565b915061221782612c46565b604082019050919050565b600061222f602a8361274d565b915061223a82612c95565b604082019050919050565b600061225260298361274d565b915061225d82612ce4565b604082019050919050565b600061227560208361274d565b915061228082612d33565b602082019050919050565b6000612298601e8361274d565b91506122a382612d5c565b602082019050919050565b60006122bb602c8361274d565b91506122c682612d85565b604082019050919050565b60006122de60298361274d565b91506122e982612dd4565b604082019050919050565b6000612301602f8361274d565b915061230c82612e23565b604082019050919050565b600061232460218361274d565b915061232f82612e72565b604082019050919050565b600061234760318361274d565b915061235282612ec1565b604082019050919050565b612366816128e8565b82525050565b600061237882856120fc565b915061238482846120fc565b91508190509392505050565b60006020820190506123a5600083018461206c565b92915050565b60006080820190506123c0600083018761206c565b6123cd602083018661206c565b6123da604083018561235d565b81810360608301526123ec818461208a565b905095945050505050565b600060408201905061240c600083018561206c565b612419602083018461235d565b9392505050565b6000602082019050612435600083018461207b565b92915050565b6000602082019050818103600083015261245581846120c3565b905092915050565b600060208201905081810360008301526124768161212d565b9050919050565b6000602082019050818103600083015261249681612150565b9050919050565b600060208201905081810360008301526124b681612173565b9050919050565b600060208201905081810360008301526124d681612196565b9050919050565b600060208201905081810360008301526124f6816121b9565b9050919050565b60006020820190508181036000830152612516816121dc565b9050919050565b60006020820190508181036000830152612536816121ff565b9050919050565b6000602082019050818103600083015261255681612222565b9050919050565b6000602082019050818103600083015261257681612245565b9050919050565b6000602082019050818103600083015261259681612268565b9050919050565b600060208201905081810360008301526125b68161228b565b9050919050565b600060208201905081810360008301526125d6816122ae565b9050919050565b600060208201905081810360008301526125f6816122d1565b9050919050565b60006020820190508181036000830152612616816122f4565b9050919050565b6000602082019050818103600083015261263681612317565b9050919050565b600060208201905081810360008301526126568161233a565b9050919050565b6000602082019050612672600083018461235d565b92915050565b6000612682612693565b905061268e8282612966565b919050565b6000604051905090565b600067ffffffffffffffff8211156126b8576126b7612a9e565b5b602082029050602081019050919050565b600067ffffffffffffffff8211156126e4576126e3612a9e565b5b602082029050602081019050919050565b600067ffffffffffffffff8211156127105761270f612a9e565b5b61271982612acd565b9050602081019050919050565b600081519050919050565b600081519050919050565b600082825260208201905092915050565b600082825260208201905092915050565b600081905092915050565b6000612774826128e8565b915061277f836128e8565b9250827fffffffffffffffffffffffffffffffffffffffffffffffffffffffffffffffff038211156127b4576127b3612a11565b5b828201905092915050565b60006127ca826128e8565b91506127d5836128e8565b9250826127e5576127e4612a40565b5b828204905092915050565b60006127fb826128e8565b9150612806836128e8565b9250817fffffffffffffffffffffffffffffffffffffffffffffffffffffffffffffffff048311821515161561283f5761283e612a11565b5b828202905092915050565b6000612855826128e8565b9150612860836128e8565b92508282101561287357612872612a11565b5b828203905092915050565b6000612889826128c8565b9050919050565b60008115159050919050565b60007fffffffff0000000000000000000000000000000000000000000000000000000082169050919050565b600073ffffffffffffffffffffffffffffffffffffffff82169050919050565b6000819050919050565b82818337600083830152505050565b60005b8381101561291f578082015181840152602081019050612904565b8381111561292e576000848401525b50505050565b6000600282049050600182168061294c57607f821691505b602082108114156129605761295f612a6f565b5b50919050565b61296f82612acd565b810181811067ffffffffffffffff8211171561298e5761298d612a9e565b5b80604052505050565b60006129a2826128e8565b91507fffffffffffffffffffffffffffffffffffffffffffffffffffffffffffffffff8214156129d5576129d4612a11565b5b600182019050919050565b60006129eb826128e8565b91506129f6836128e8565b925082612a0657612a05612a40565b5b828206905092915050565b7f4e487b7100000000000000000000000000000000000000000000000000000000600052601160045260246000fd5b7f4e487b7100000000000000000000000000000000000000000000000000000000600052601260045260246000fd5b7f4e487b7100000000000000000000000000000000000000000000000000000000600052602260045260246000fd5b7f4e487b7100000000000000000000000000000000000000000000000000000000600052604160045260246000fd5b6000601f19601f8301169050919050565b7f45524332393831526f79616c746965733a20546f6f2068696768000000000000600082015250565b7f4552433732313a207472616e7366657220746f206e6f6e20455243373231526560008201527f63656976657220696d706c656d656e7465720000000000000000000000000000602082015250565b7f4552433732313a20746f6b656e20616c7265616479206d696e74656400000000600082015250565b7f4552433732313a207472616e7366657220746f20746865207a65726f2061646460008201527f7265737300000000000000000000000000000000000000000000000000000000602082015250565b7f4552433732313a20617070726f766520746f2063616c6c657200000000000000600082015250565b7f4552433732313a206f70657261746f7220717565727920666f72206e6f6e657860008201527f697374656e7420746f6b656e0000000000000000000000000000000000000000602082015250565b7f4552433732313a20617070726f76652063616c6c6572206973206e6f74206f7760008201527f6e6572206e6f7220617070726f76656420666f7220616c6c0000000000000000602082015250565b7f4552433732313a2062616c616e636520717565727920666f7220746865207a6560008201527f726f206164647265737300000000000000000000000000000000000000000000602082015250565b7f4552433732313a206f776e657220717565727920666f72206e6f6e657869737460008201527f656e7420746f6b656e0000000000000000000000000000000000000000000000602082015250565b7f4552433732313a206d696e7420746f20746865207a65726f2061646472657373600082015250565b7f4552433732313a20417272617973206c656e677468206d69736d617463680000600082015250565b7f4552433732313a20617070726f76656420717565727920666f72206e6f6e657860008201527f697374656e7420746f6b656e0000000000000000000000000000000000000000602082015250565b7f4552433732313a207472616e73666572206f6620746f6b656e2074686174206960008201527f73206e6f74206f776e0000000000000000000000000000000000000000000000602082015250565b7f4552433732314d657461646174613a2055524920717565727920666f72206e6f60008201527f6e6578697374656e7420746f6b656e0000000000000000000000000000000000602082015250565b7f4552433732313a20617070726f76616c20746f2063757272656e74206f776e6560008201527f7200000000000000000000000000000000000000000000000000000000000000602082015250565b7f4552433732313a207472616e736665722063616c6c6572206973206e6f74206f60008201527f776e6572206e6f7220617070726f766564000000000000000000000000000000602082015250565b612f198161287e565b8114612f2457600080fd5b50565b612f3081612890565b8114612f3b57600080fd5b50565b612f478161289c565b8114612f5257600080fd5b50565b612f5e816128e8565b8114612f6957600080fd5b5056fea26469706673582212205f164c8aa1eb96f0c5a94e85b49f16dac7e6164f37a81a45850010654ccc7dcb64736f6c63430008040033",
  "immutableReferences": {},
  "source": "//SPDX-License-Identifier: MIT\n// Adapted from https://github.com/dievardump/EIP2981-implementation\n\npragma solidity ^0.8.0;\n\nimport '@openzeppelin/contracts/token/ERC721/ERC721.sol';\nimport './ERC2981PerTokenRoyalties.sol';\n\n/// @title Example of ERC721 contract with ERC2981\n/// @author Simon Fremaux (@dievardump)\n/// @notice This is a mock, mint and mintBatch are not protected. Please do not use as-is in production\ncontract ERC721WithRoyalties is ERC721, ERC2981PerTokenRoyalties {\n    uint256 nextTokenId;\n\n    constructor(string memory name_, string memory symbol_)\n        ERC721(name_, symbol_)\n    {}\n\n    /// @inheritdoc\tERC165\n    function supportsInterface(bytes4 interfaceId)\n        public\n        view\n        virtual\n        override(ERC721, ERC2981)\n        returns (bool)\n    {\n        return super.supportsInterface(interfaceId);\n    }\n\n    /// @notice Mint one token to `to`\n    /// @param to the recipient of the token\n    /// @param royaltyRecipient the recipient for royalties (if royaltyValue > 0)\n    /// @param royaltyValue the royalties asked for (EIP2981)\n    function mint(\n        address to,\n        address royaltyRecipient,\n        uint256 royaltyValue\n    ) external {\n        uint256 tokenId = nextTokenId;\n        _safeMint(to, tokenId, '');\n\n        if (royaltyValue > 0) {\n            _setTokenRoyalty(tokenId, royaltyRecipient, royaltyValue);\n        }\n\n        nextTokenId = tokenId + 1;\n    }\n\n    /// @notice Mint several tokens at once\n    /// @param recipients an array of recipients for each token\n    /// @param royaltyRecipients an array of recipients for royalties (if royaltyValues[i] > 0)\n    /// @param royaltyValues an array of royalties asked for (EIP2981)\n    function mintBatch(\n        address[] memory recipients,\n        address[] memory royaltyRecipients,\n        uint256[] memory royaltyValues\n    ) external {\n        uint256 tokenId = nextTokenId;\n        require(\n            recipients.length == royaltyRecipients.length &&\n                recipients.length == royaltyValues.length,\n            'ERC721: Arrays length mismatch'\n        );\n\n        for (uint256 i; i < recipients.length; i++) {\n            _safeMint(recipients[i], tokenId, '');\n            if (royaltyValues[i] > 0) {\n                _setTokenRoyalty(\n                    tokenId,\n                    royaltyRecipients[i],\n                    royaltyValues[i]\n                );\n            }\n            tokenId++;\n        }\n        nextTokenId = tokenId;\n    }\n}",
  "sourcePath": "/Users/thryec/Desktop/Klaytn/Dev/eip-testing-truffle/contracts/ERC721PerTokenRoyalties.sol",
  "compiler": {
    "name": "solc",
    "version": "0.8.4+commit.c7e474f2.Emscripten.clang"
  },
  "schemaVersion": "3.3.3",
  "updatedAt": "2022-01-18T07:18:01.574Z",
  "devdoc": {
    "author": "Simon Fremaux (@dievardump)",
    "kind": "dev",
    "methods": {
      "approve(address,uint256)": {
        "details": "See {IERC721-approve}."
      },
      "balanceOf(address)": {
        "details": "See {IERC721-balanceOf}."
      },
      "getApproved(uint256)": {
        "details": "See {IERC721-getApproved}."
      },
      "isApprovedForAll(address,address)": {
        "details": "See {IERC721-isApprovedForAll}."
      },
      "mint(address,address,uint256)": {
        "params": {
          "royaltyRecipient": "the recipient for royalties (if royaltyValue > 0)",
          "royaltyValue": "the royalties asked for (EIP2981)",
          "to": "the recipient of the token"
        }
      },
      "mintBatch(address[],address[],uint256[])": {
        "params": {
          "recipients": "an array of recipients for each token",
          "royaltyRecipients": "an array of recipients for royalties (if royaltyValues[i] > 0)",
          "royaltyValues": "an array of royalties asked for (EIP2981)"
        }
      },
      "name()": {
        "details": "See {IERC721Metadata-name}."
      },
      "ownerOf(uint256)": {
        "details": "See {IERC721-ownerOf}."
      },
      "safeTransferFrom(address,address,uint256)": {
        "details": "See {IERC721-safeTransferFrom}."
      },
      "safeTransferFrom(address,address,uint256,bytes)": {
        "details": "See {IERC721-safeTransferFrom}."
      },
      "setApprovalForAll(address,bool)": {
        "details": "See {IERC721-setApprovalForAll}."
      },
      "supportsInterface(bytes4)": {
        "details": "See {IERC165-supportsInterface}."
      },
      "symbol()": {
        "details": "See {IERC721Metadata-symbol}."
      },
      "tokenURI(uint256)": {
        "details": "See {IERC721Metadata-tokenURI}."
      },
      "transferFrom(address,address,uint256)": {
        "details": "See {IERC721-transferFrom}."
      }
    },
    "title": "Example of ERC721 contract with ERC2981",
    "version": 1
  },
  "userdoc": {
    "kind": "user",
    "methods": {
      "mint(address,address,uint256)": {
        "notice": "Mint one token to `to`"
      },
      "mintBatch(address[],address[],uint256[])": {
        "notice": "Mint several tokens at once"
      }
    },
    "notice": "This is a mock, mint and mintBatch are not protected. Please do not use as-is in production",
    "version": 1
  }
}