{
  "contractName": "ERC721ContractWideRoyalties",
  "abi": [
    {
      "inputs": [
        {
          "internalType": "string",
          "name": "name_",
          "type": "string"
        },
        {
          "internalType": "string",
          "name": "symbol_",
          "type": "string"
        }
      ],
      "stateMutability": "nonpayable",
      "type": "constructor"
    },
    {
      "anonymous": false,
      "inputs": [
        {
          "indexed": true,
          "internalType": "address",
          "name": "owner",
          "type": "address"
        },
        {
          "indexed": true,
          "internalType": "address",
          "name": "approved",
          "type": "address"
        },
        {
          "indexed": true,
          "internalType": "uint256",
          "name": "tokenId",
          "type": "uint256"
        }
      ],
      "name": "Approval",
      "type": "event"
    },
    {
      "anonymous": false,
      "inputs": [
        {
          "indexed": true,
          "internalType": "address",
          "name": "owner",
          "type": "address"
        },
        {
          "indexed": true,
          "internalType": "address",
          "name": "operator",
          "type": "address"
        },
        {
          "indexed": false,
          "internalType": "bool",
          "name": "approved",
          "type": "bool"
        }
      ],
      "name": "ApprovalForAll",
      "type": "event"
    },
    {
      "anonymous": false,
      "inputs": [
        {
          "indexed": true,
          "internalType": "address",
          "name": "previousOwner",
          "type": "address"
        },
        {
          "indexed": true,
          "internalType": "address",
          "name": "newOwner",
          "type": "address"
        }
      ],
      "name": "OwnershipTransferred",
      "type": "event"
    },
    {
      "anonymous": false,
      "inputs": [
        {
          "indexed": true,
          "internalType": "address",
          "name": "from",
          "type": "address"
        },
        {
          "indexed": true,
          "internalType": "address",
          "name": "to",
          "type": "address"
        },
        {
          "indexed": true,
          "internalType": "uint256",
          "name": "tokenId",
          "type": "uint256"
        }
      ],
      "name": "Transfer",
      "type": "event"
    },
    {
      "inputs": [
        {
          "internalType": "address",
          "name": "to",
          "type": "address"
        },
        {
          "internalType": "uint256",
          "name": "tokenId",
          "type": "uint256"
        }
      ],
      "name": "approve",
      "outputs": [],
      "stateMutability": "nonpayable",
      "type": "function"
    },
    {
      "inputs": [
        {
          "internalType": "address",
          "name": "owner",
          "type": "address"
        }
      ],
      "name": "balanceOf",
      "outputs": [
        {
          "internalType": "uint256",
          "name": "",
          "type": "uint256"
        }
      ],
      "stateMutability": "view",
      "type": "function",
      "constant": true
    },
    {
      "inputs": [
        {
          "internalType": "uint256",
          "name": "tokenId",
          "type": "uint256"
        }
      ],
      "name": "getApproved",
      "outputs": [
        {
          "internalType": "address",
          "name": "",
          "type": "address"
        }
      ],
      "stateMutability": "view",
      "type": "function",
      "constant": true
    },
    {
      "inputs": [
        {
          "internalType": "address",
          "name": "owner",
          "type": "address"
        },
        {
          "internalType": "address",
          "name": "operator",
          "type": "address"
        }
      ],
      "name": "isApprovedForAll",
      "outputs": [
        {
          "internalType": "bool",
          "name": "",
          "type": "bool"
        }
      ],
      "stateMutability": "view",
      "type": "function",
      "constant": true
    },
    {
      "inputs": [],
      "name": "name",
      "outputs": [
        {
          "internalType": "string",
          "name": "",
          "type": "string"
        }
      ],
      "stateMutability": "view",
      "type": "function",
      "constant": true
    },
    {
      "inputs": [],
      "name": "owner",
      "outputs": [
        {
          "internalType": "address",
          "name": "",
          "type": "address"
        }
      ],
      "stateMutability": "view",
      "type": "function",
      "constant": true
    },
    {
      "inputs": [
        {
          "internalType": "uint256",
          "name": "tokenId",
          "type": "uint256"
        }
      ],
      "name": "ownerOf",
      "outputs": [
        {
          "internalType": "address",
          "name": "",
          "type": "address"
        }
      ],
      "stateMutability": "view",
      "type": "function",
      "constant": true
    },
    {
      "inputs": [],
      "name": "renounceOwnership",
      "outputs": [],
      "stateMutability": "nonpayable",
      "type": "function"
    },
    {
      "inputs": [
        {
          "internalType": "uint256",
          "name": "_tokenId",
          "type": "uint256"
        },
        {
          "internalType": "uint256",
          "name": "_salePrice",
          "type": "uint256"
        }
      ],
      "name": "royaltyInfo",
      "outputs": [
        {
          "internalType": "address",
          "name": "",
          "type": "address"
        },
        {
          "internalType": "uint256",
          "name": "",
          "type": "uint256"
        }
      ],
      "stateMutability": "view",
      "type": "function",
      "constant": true
    },
    {
      "inputs": [
        {
          "internalType": "address",
          "name": "from",
          "type": "address"
        },
        {
          "internalType": "address",
          "name": "to",
          "type": "address"
        },
        {
          "internalType": "uint256",
          "name": "tokenId",
          "type": "uint256"
        }
      ],
      "name": "safeTransferFrom",
      "outputs": [],
      "stateMutability": "nonpayable",
      "type": "function"
    },
    {
      "inputs": [
        {
          "internalType": "address",
          "name": "from",
          "type": "address"
        },
        {
          "internalType": "address",
          "name": "to",
          "type": "address"
        },
        {
          "internalType": "uint256",
          "name": "tokenId",
          "type": "uint256"
        },
        {
          "internalType": "bytes",
          "name": "_data",
          "type": "bytes"
        }
      ],
      "name": "safeTransferFrom",
      "outputs": [],
      "stateMutability": "nonpayable",
      "type": "function"
    },
    {
      "inputs": [
        {
          "internalType": "address",
          "name": "operator",
          "type": "address"
        },
        {
          "internalType": "bool",
          "name": "approved",
          "type": "bool"
        }
      ],
      "name": "setApprovalForAll",
      "outputs": [],
      "stateMutability": "nonpayable",
      "type": "function"
    },
    {
      "inputs": [],
      "name": "symbol",
      "outputs": [
        {
          "internalType": "string",
          "name": "",
          "type": "string"
        }
      ],
      "stateMutability": "view",
      "type": "function",
      "constant": true
    },
    {
      "inputs": [
        {
          "internalType": "uint256",
          "name": "tokenId",
          "type": "uint256"
        }
      ],
      "name": "tokenURI",
      "outputs": [
        {
          "internalType": "string",
          "name": "",
          "type": "string"
        }
      ],
      "stateMutability": "view",
      "type": "function",
      "constant": true
    },
    {
      "inputs": [
        {
          "internalType": "address",
          "name": "from",
          "type": "address"
        },
        {
          "internalType": "address",
          "name": "to",
          "type": "address"
        },
        {
          "internalType": "uint256",
          "name": "tokenId",
          "type": "uint256"
        }
      ],
      "name": "transferFrom",
      "outputs": [],
      "stateMutability": "nonpayable",
      "type": "function"
    },
    {
      "inputs": [
        {
          "internalType": "address",
          "name": "newOwner",
          "type": "address"
        }
      ],
      "name": "transferOwnership",
      "outputs": [],
      "stateMutability": "nonpayable",
      "type": "function"
    },
    {
      "inputs": [
        {
          "internalType": "bytes4",
          "name": "interfaceId",
          "type": "bytes4"
        }
      ],
      "name": "supportsInterface",
      "outputs": [
        {
          "internalType": "bool",
          "name": "",
          "type": "bool"
        }
      ],
      "stateMutability": "view",
      "type": "function",
      "constant": true
    },
    {
      "inputs": [
        {
          "internalType": "address",
          "name": "recipient",
          "type": "address"
        },
        {
          "internalType": "uint256",
          "name": "value",
          "type": "uint256"
        }
      ],
      "name": "setRoyalties",
      "outputs": [],
      "stateMutability": "nonpayable",
      "type": "function"
    },
    {
      "inputs": [
        {
          "internalType": "address",
          "name": "receiver",
          "type": "address"
        },
        {
          "internalType": "uint96",
          "name": "feeNumerator",
          "type": "uint96"
        }
      ],
      "name": "setDefaultRoyalty",
      "outputs": [],
      "stateMutability": "nonpayable",
      "type": "function"
    },
    {
      "inputs": [
        {
          "internalType": "uint256",
          "name": "tokenId",
          "type": "uint256"
        },
        {
          "internalType": "address",
          "name": "receiver",
          "type": "address"
        },
        {
          "internalType": "uint96",
          "name": "feeNumerator",
          "type": "uint96"
        }
      ],
      "name": "setTokenRoyalty",
      "outputs": [],
      "stateMutability": "nonpayable",
      "type": "function"
    },
    {
      "inputs": [
        {
          "internalType": "address",
          "name": "to",
          "type": "address"
        }
      ],
      "name": "mint",
      "outputs": [
        {
          "internalType": "uint256",
          "name": "_tokenId",
          "type": "uint256"
        }
      ],
      "stateMutability": "nonpayable",
      "type": "function"
    },
    {
      "inputs": [
        {
          "internalType": "address[]",
          "name": "recipients",
          "type": "address[]"
        }
      ],
      "name": "mintBatch",
      "outputs": [],
      "stateMutability": "nonpayable",
      "type": "function"
    }
  ],
  "bytecode": "0x60806040523480156200001157600080fd5b5060405162003c6838038062003c68833981810160405281019062000037919062000285565b818181600090805190602001906200005192919062000163565b5080600190805190602001906200006a92919062000163565b5050506200008d620000816200009560201b60201c565b6200009d60201b60201c565b505062000468565b600033905090565b6000600960009054906101000a900473ffffffffffffffffffffffffffffffffffffffff16905081600960006101000a81548173ffffffffffffffffffffffffffffffffffffffff021916908373ffffffffffffffffffffffffffffffffffffffff1602179055508173ffffffffffffffffffffffffffffffffffffffff168173ffffffffffffffffffffffffffffffffffffffff167f8be0079c531659141344cd1fd0a4f28419497f9722a3daafe3b4186f6b6457e060405160405180910390a35050565b82805462000171906200038d565b90600052602060002090601f016020900481019282620001955760008555620001e1565b82601f10620001b057805160ff1916838001178555620001e1565b82800160010185558215620001e1579182015b82811115620001e0578251825591602001919060010190620001c3565b5b509050620001f09190620001f4565b5090565b5b808211156200020f576000816000905550600101620001f5565b5090565b60006200022a620002248462000321565b620002f8565b9050828152602081018484840111156200024357600080fd5b6200025084828562000357565b509392505050565b600082601f8301126200026a57600080fd5b81516200027c84826020860162000213565b91505092915050565b600080604083850312156200029957600080fd5b600083015167ffffffffffffffff811115620002b457600080fd5b620002c28582860162000258565b925050602083015167ffffffffffffffff811115620002e057600080fd5b620002ee8582860162000258565b9150509250929050565b60006200030462000317565b9050620003128282620003c3565b919050565b6000604051905090565b600067ffffffffffffffff8211156200033f576200033e62000428565b5b6200034a8262000457565b9050602081019050919050565b60005b83811015620003775780820151818401526020810190506200035a565b8381111562000387576000848401525b50505050565b60006002820490506001821680620003a657607f821691505b60208210811415620003bd57620003bc620003f9565b5b50919050565b620003ce8262000457565b810181811067ffffffffffffffff82111715620003f057620003ef62000428565b5b80604052505050565b7f4e487b7100000000000000000000000000000000000000000000000000000000600052602260045260246000fd5b7f4e487b7100000000000000000000000000000000000000000000000000000000600052604160045260246000fd5b6000601f19601f8301169050919050565b6137f080620004786000396000f3fe608060405234801561001057600080fd5b50600436106101425760003560e01c806370a08231116100b857806395d89b411161007c57806395d89b4114610372578063a22cb46514610390578063b88d4fde146103ac578063c87b56dd146103c8578063e985e9c5146103f8578063f2fde38b1461042857610142565b806370a08231146102e2578063715018a6146103125780638c7ea24b1461031c5780638da5cb5b14610338578063927f59ba1461035657610142565b806323b872dd1161010a57806323b872dd146101fd5780632a55205a1461021957806342842e0e1461024a5780635944c753146102665780636352211e146102825780636a627842146102b257610142565b806301ffc9a71461014757806304634d8d1461017757806306fdde0314610193578063081812fc146101b1578063095ea7b3146101e1575b600080fd5b610161600480360381019061015c91906125b5565b610444565b60405161016e9190612afb565b60405180910390f35b610191600480360381019061018c9190612538565b610456565b005b61019b610464565b6040516101a89190612b16565b60405180910390f35b6101cb60048036038101906101c69190612607565b6104f6565b6040516101d89190612a6b565b60405180910390f35b6101fb60048036038101906101f691906124fc565b61057b565b005b610217600480360381019061021291906123f6565b610693565b005b610233600480360381019061022e919061267f565b6106f3565b604051610241929190612ad2565b60405180910390f35b610264600480360381019061025f91906123f6565b6108de565b005b610280600480360381019061027b9190612630565b6108fe565b005b61029c60048036038101906102979190612607565b61090e565b6040516102a99190612a6b565b60405180910390f35b6102cc60048036038101906102c79190612391565b6109c0565b6040516102d99190612db8565b60405180910390f35b6102fc60048036038101906102f79190612391565b6109fc565b6040516103099190612db8565b60405180910390f35b61031a610ab4565b005b610336600480360381019061033191906124fc565b610b3c565b005b610340610b4a565b60405161034d9190612a6b565b60405180910390f35b610370600480360381019061036b9190612574565b610b74565b005b61037a610c0a565b6040516103879190612b16565b60405180910390f35b6103aa60048036038101906103a591906124c0565b610c9c565b005b6103c660048036038101906103c19190612445565b610cb2565b005b6103e260048036038101906103dd9190612607565b610d14565b6040516103ef9190612b16565b60405180910390f35b610412600480360381019061040d91906123ba565b610dbb565b60405161041f9190612afb565b60405180910390f35b610442600480360381019061043d9190612391565b610e4f565b005b600061044f82610f47565b9050919050565b6104608282610fc1565b5050565b6060600080546104739061307b565b80601f016020809104026020016040519081016040528092919081815260200182805461049f9061307b565b80156104ec5780601f106104c1576101008083540402835291602001916104ec565b820191906000526020600020905b8154815290600101906020018083116104cf57829003601f168201915b5050505050905090565b600061050182611157565b610540576040517f08c379a000000000000000000000000000000000000000000000000000000000815260040161053790612c98565b60405180910390fd5b6004600083815260200190815260200160002060009054906101000a900473ffffffffffffffffffffffffffffffffffffffff169050919050565b60006105868261090e565b90508073ffffffffffffffffffffffffffffffffffffffff168373ffffffffffffffffffffffffffffffffffffffff1614156105f7576040517f08c379a00000000000000000000000000000000000000000000000000000000081526004016105ee90612d18565b60405180910390fd5b8073ffffffffffffffffffffffffffffffffffffffff166106166111c3565b73ffffffffffffffffffffffffffffffffffffffff16148061064557506106448161063f6111c3565b610dbb565b5b610684576040517f08c379a000000000000000000000000000000000000000000000000000000000815260040161067b90612c18565b60405180910390fd5b61068e83836111cb565b505050565b6106a461069e6111c3565b82611284565b6106e3576040517f08c379a00000000000000000000000000000000000000000000000000000000081526004016106da90612d38565b60405180910390fd5b6106ee838383611362565b505050565b6000806000600760008681526020019081526020016000206040518060400160405290816000820160009054906101000a900473ffffffffffffffffffffffffffffffffffffffff1673ffffffffffffffffffffffffffffffffffffffff1673ffffffffffffffffffffffffffffffffffffffff1681526020016000820160149054906101000a90046bffffffffffffffffffffffff166bffffffffffffffffffffffff166bffffffffffffffffffffffff16815250509050600073ffffffffffffffffffffffffffffffffffffffff16816000015173ffffffffffffffffffffffffffffffffffffffff1614156108895760066040518060400160405290816000820160009054906101000a900473ffffffffffffffffffffffffffffffffffffffff1673ffffffffffffffffffffffffffffffffffffffff1673ffffffffffffffffffffffffffffffffffffffff1681526020016000820160149054906101000a90046bffffffffffffffffffffffff166bffffffffffffffffffffffff166bffffffffffffffffffffffff168152505090505b60006108936115be565b6bffffffffffffffffffffffff1682602001516bffffffffffffffffffffffff16866108bf9190612f1f565b6108c99190612eee565b90508160000151819350935050509250929050565b6108f983838360405180602001604052806000815250610cb2565b505050565b6109098383836115c8565b505050565b6000806002600084815260200190815260200160002060009054906101000a900473ffffffffffffffffffffffffffffffffffffffff169050600073ffffffffffffffffffffffffffffffffffffffff168173ffffffffffffffffffffffffffffffffffffffff1614156109b7576040517f08c379a00000000000000000000000000000000000000000000000000000000081526004016109ae90612c58565b60405180910390fd5b80915050919050565b6000806109cd600a611770565b90506109e983826040518060200160405280600081525061177e565b6109f3600a6117d9565b80915050919050565b60008073ffffffffffffffffffffffffffffffffffffffff168273ffffffffffffffffffffffffffffffffffffffff161415610a6d576040517f08c379a0000000000000000000000000000000000000000000000000000000008152600401610a6490612c38565b60405180910390fd5b600360008373ffffffffffffffffffffffffffffffffffffffff1673ffffffffffffffffffffffffffffffffffffffff168152602001908152602001600020549050919050565b610abc6111c3565b73ffffffffffffffffffffffffffffffffffffffff16610ada610b4a565b73ffffffffffffffffffffffffffffffffffffffff1614610b30576040517f08c379a0000000000000000000000000000000000000000000000000000000008152600401610b2790612cb8565b60405180910390fd5b610b3a60006117ef565b565b610b4682826118b5565b5050565b6000600960009054906101000a900473ffffffffffffffffffffffffffffffffffffffff16905090565b6000610b80600a611770565b905060005b8251811015610c0557610be8838281518110610bca577f4e487b7100000000000000000000000000000000000000000000000000000000600052603260045260246000fd5b6020026020010151836040518060200160405280600081525061177e565b610bf2600a6117d9565b8080610bfd906130de565b915050610b85565b505050565b606060018054610c199061307b565b80601f0160208091040260200160405190810160405280929190818152602001828054610c459061307b565b8015610c925780601f10610c6757610100808354040283529160200191610c92565b820191906000526020600020905b815481529060010190602001808311610c7557829003601f168201915b5050505050905090565b610cae610ca76111c3565b83836119bf565b5050565b610cc3610cbd6111c3565b83611284565b610d02576040517f08c379a0000000000000000000000000000000000000000000000000000000008152600401610cf990612d38565b60405180910390fd5b610d0e84848484611b2c565b50505050565b6060610d1f82611157565b610d5e576040517f08c379a0000000000000000000000000000000000000000000000000000000008152600401610d5590612cf8565b60405180910390fd5b6000610d68611b88565b90506000815111610d885760405180602001604052806000815250610db3565b80610d9284611b9f565b604051602001610da3929190612a47565b6040516020818303038152906040525b915050919050565b6000600560008473ffffffffffffffffffffffffffffffffffffffff1673ffffffffffffffffffffffffffffffffffffffff16815260200190815260200160002060008373ffffffffffffffffffffffffffffffffffffffff1673ffffffffffffffffffffffffffffffffffffffff16815260200190815260200160002060009054906101000a900460ff16905092915050565b610e576111c3565b73ffffffffffffffffffffffffffffffffffffffff16610e75610b4a565b73ffffffffffffffffffffffffffffffffffffffff1614610ecb576040517f08c379a0000000000000000000000000000000000000000000000000000000008152600401610ec290612cb8565b60405180910390fd5b600073ffffffffffffffffffffffffffffffffffffffff168173ffffffffffffffffffffffffffffffffffffffff161415610f3b576040517f08c379a0000000000000000000000000000000000000000000000000000000008152600401610f3290612b78565b60405180910390fd5b610f44816117ef565b50565b60007f2a55205a000000000000000000000000000000000000000000000000000000007bffffffffffffffffffffffffffffffffffffffffffffffffffffffff1916827bffffffffffffffffffffffffffffffffffffffffffffffffffffffff19161480610fba5750610fb982611d4c565b5b9050919050565b610fc96115be565b6bffffffffffffffffffffffff16816bffffffffffffffffffffffff161115611027576040517f08c379a000000000000000000000000000000000000000000000000000000000815260040161101e90612d78565b60405180910390fd5b600073ffffffffffffffffffffffffffffffffffffffff168273ffffffffffffffffffffffffffffffffffffffff161415611097576040517f08c379a000000000000000000000000000000000000000000000000000000000815260040161108e90612d98565b60405180910390fd5b60405180604001604052808373ffffffffffffffffffffffffffffffffffffffff168152602001826bffffffffffffffffffffffff16815250600660008201518160000160006101000a81548173ffffffffffffffffffffffffffffffffffffffff021916908373ffffffffffffffffffffffffffffffffffffffff16021790555060208201518160000160146101000a8154816bffffffffffffffffffffffff02191690836bffffffffffffffffffffffff1602179055509050505050565b60008073ffffffffffffffffffffffffffffffffffffffff166002600084815260200190815260200160002060009054906101000a900473ffffffffffffffffffffffffffffffffffffffff1673ffffffffffffffffffffffffffffffffffffffff1614159050919050565b600033905090565b816004600083815260200190815260200160002060006101000a81548173ffffffffffffffffffffffffffffffffffffffff021916908373ffffffffffffffffffffffffffffffffffffffff160217905550808273ffffffffffffffffffffffffffffffffffffffff1661123e8361090e565b73ffffffffffffffffffffffffffffffffffffffff167f8c5be1e5ebec7d5bd14f71427d1e84f3dd0314c0f7b2291e5b200ac8c7c3b92560405160405180910390a45050565b600061128f82611157565b6112ce576040517f08c379a00000000000000000000000000000000000000000000000000000000081526004016112c590612bf8565b60405180910390fd5b60006112d98361090e565b90508073ffffffffffffffffffffffffffffffffffffffff168473ffffffffffffffffffffffffffffffffffffffff16148061134857508373ffffffffffffffffffffffffffffffffffffffff16611330846104f6565b73ffffffffffffffffffffffffffffffffffffffff16145b8061135957506113588185610dbb565b5b91505092915050565b8273ffffffffffffffffffffffffffffffffffffffff166113828261090e565b73ffffffffffffffffffffffffffffffffffffffff16146113d8576040517f08c379a00000000000000000000000000000000000000000000000000000000081526004016113cf90612cd8565b60405180910390fd5b600073ffffffffffffffffffffffffffffffffffffffff168273ffffffffffffffffffffffffffffffffffffffff161415611448576040517f08c379a000000000000000000000000000000000000000000000000000000000815260040161143f90612bb8565b60405180910390fd5b611453838383611e2e565b61145e6000826111cb565b6001600360008573ffffffffffffffffffffffffffffffffffffffff1673ffffffffffffffffffffffffffffffffffffffff16815260200190815260200160002060008282546114ae9190612f79565b925050819055506001600360008473ffffffffffffffffffffffffffffffffffffffff1673ffffffffffffffffffffffffffffffffffffffff16815260200190815260200160002060008282546115059190612e98565b92505081905550816002600083815260200190815260200160002060006101000a81548173ffffffffffffffffffffffffffffffffffffffff021916908373ffffffffffffffffffffffffffffffffffffffff160217905550808273ffffffffffffffffffffffffffffffffffffffff168473ffffffffffffffffffffffffffffffffffffffff167fddf252ad1be2c89b69c2b068fc378daa952ba7f163c4a11628f55a4df523b3ef60405160405180910390a4505050565b6000612710905090565b6115d06115be565b6bffffffffffffffffffffffff16816bffffffffffffffffffffffff16111561162e576040517f08c379a000000000000000000000000000000000000000000000000000000000815260040161162590612d78565b60405180910390fd5b600073ffffffffffffffffffffffffffffffffffffffff168273ffffffffffffffffffffffffffffffffffffffff16141561169e576040517f08c379a000000000000000000000000000000000000000000000000000000000815260040161169590612d58565b60405180910390fd5b60405180604001604052808373ffffffffffffffffffffffffffffffffffffffff168152602001826bffffffffffffffffffffffff168152506007600085815260200190815260200160002060008201518160000160006101000a81548173ffffffffffffffffffffffffffffffffffffffff021916908373ffffffffffffffffffffffffffffffffffffffff16021790555060208201518160000160146101000a8154816bffffffffffffffffffffffff02191690836bffffffffffffffffffffffff160217905550905050505050565b600081600001549050919050565b6117888383611e33565b6117956000848484612001565b6117d4576040517f08c379a00000000000000000000000000000000000000000000000000000000081526004016117cb90612b58565b60405180910390fd5b505050565b6001816000016000828254019250508190555050565b6000600960009054906101000a900473ffffffffffffffffffffffffffffffffffffffff16905081600960006101000a81548173ffffffffffffffffffffffffffffffffffffffff021916908373ffffffffffffffffffffffffffffffffffffffff1602179055508173ffffffffffffffffffffffffffffffffffffffff168173ffffffffffffffffffffffffffffffffffffffff167f8be0079c531659141344cd1fd0a4f28419497f9722a3daafe3b4186f6b6457e060405160405180910390a35050565b6127108111156118fa576040517f08c379a00000000000000000000000000000000000000000000000000000000081526004016118f190612b38565b60405180910390fd5b60405180604001604052808373ffffffffffffffffffffffffffffffffffffffff1681526020018262ffffff166bffffffffffffffffffffffff16815250600860008201518160000160006101000a81548173ffffffffffffffffffffffffffffffffffffffff021916908373ffffffffffffffffffffffffffffffffffffffff16021790555060208201518160000160146101000a8154816bffffffffffffffffffffffff02191690836bffffffffffffffffffffffff1602179055509050505050565b8173ffffffffffffffffffffffffffffffffffffffff168373ffffffffffffffffffffffffffffffffffffffff161415611a2e576040517f08c379a0000000000000000000000000000000000000000000000000000000008152600401611a2590612bd8565b60405180910390fd5b80600560008573ffffffffffffffffffffffffffffffffffffffff1673ffffffffffffffffffffffffffffffffffffffff16815260200190815260200160002060008473ffffffffffffffffffffffffffffffffffffffff1673ffffffffffffffffffffffffffffffffffffffff16815260200190815260200160002060006101000a81548160ff0219169083151502179055508173ffffffffffffffffffffffffffffffffffffffff168373ffffffffffffffffffffffffffffffffffffffff167f17307eab39ab6107e8899845ad3d59bd9653f200f220920489ca2b5937696c3183604051611b1f9190612afb565b60405180910390a3505050565b611b37848484611362565b611b4384848484612001565b611b82576040517f08c379a0000000000000000000000000000000000000000000000000000000008152600401611b7990612b58565b60405180910390fd5b50505050565b606060405180602001604052806000815250905090565b60606000821415611be7576040518060400160405280600181526020017f30000000000000000000000000000000000000000000000000000000000000008152509050611d47565b600082905060005b60008214611c19578080611c02906130de565b915050600a82611c129190612eee565b9150611bef565b60008167ffffffffffffffff811115611c5b577f4e487b7100000000000000000000000000000000000000000000000000000000600052604160045260246000fd5b6040519080825280601f01601f191660200182016040528015611c8d5781602001600182028036833780820191505090505b5090505b60008514611d4057600182611ca69190612f79565b9150600a85611cb59190613127565b6030611cc19190612e98565b60f81b818381518110611cfd577f4e487b7100000000000000000000000000000000000000000000000000000000600052603260045260246000fd5b60200101907effffffffffffffffffffffffffffffffffffffffffffffffffffffffffffff1916908160001a905350600a85611d399190612eee565b9450611c91565b8093505050505b919050565b60007f80ac58cd000000000000000000000000000000000000000000000000000000007bffffffffffffffffffffffffffffffffffffffffffffffffffffffff1916827bffffffffffffffffffffffffffffffffffffffffffffffffffffffff19161480611e1757507f5b5e139f000000000000000000000000000000000000000000000000000000007bffffffffffffffffffffffffffffffffffffffffffffffffffffffff1916827bffffffffffffffffffffffffffffffffffffffffffffffffffffffff1916145b80611e275750611e2682612198565b5b9050919050565b505050565b600073ffffffffffffffffffffffffffffffffffffffff168273ffffffffffffffffffffffffffffffffffffffff161415611ea3576040517f08c379a0000000000000000000000000000000000000000000000000000000008152600401611e9a90612c78565b60405180910390fd5b611eac81611157565b15611eec576040517f08c379a0000000000000000000000000000000000000000000000000000000008152600401611ee390612b98565b60405180910390fd5b611ef860008383611e2e565b6001600360008473ffffffffffffffffffffffffffffffffffffffff1673ffffffffffffffffffffffffffffffffffffffff1681526020019081526020016000206000828254611f489190612e98565b92505081905550816002600083815260200190815260200160002060006101000a81548173ffffffffffffffffffffffffffffffffffffffff021916908373ffffffffffffffffffffffffffffffffffffffff160217905550808273ffffffffffffffffffffffffffffffffffffffff16600073ffffffffffffffffffffffffffffffffffffffff167fddf252ad1be2c89b69c2b068fc378daa952ba7f163c4a11628f55a4df523b3ef60405160405180910390a45050565b60006120228473ffffffffffffffffffffffffffffffffffffffff16612202565b1561218b578373ffffffffffffffffffffffffffffffffffffffff1663150b7a0261204b6111c3565b8786866040518563ffffffff1660e01b815260040161206d9493929190612a86565b602060405180830381600087803b15801561208757600080fd5b505af19250505080156120b857506040513d601f19601f820116820180604052508101906120b591906125de565b60015b61213b573d80600081146120e8576040519150601f19603f3d011682016040523d82523d6000602084013e6120ed565b606091505b50600081511415612133576040517f08c379a000000000000000000000000000000000000000000000000000000000815260040161212a90612b58565b60405180910390fd5b805181602001fd5b63150b7a0260e01b7bffffffffffffffffffffffffffffffffffffffffffffffffffffffff1916817bffffffffffffffffffffffffffffffffffffffffffffffffffffffff191614915050612190565b600190505b949350505050565b60007f01ffc9a7000000000000000000000000000000000000000000000000000000007bffffffffffffffffffffffffffffffffffffffffffffffffffffffff1916827bffffffffffffffffffffffffffffffffffffffffffffffffffffffff1916149050919050565b600080823b905060008111915050919050565b600061222861222384612df8565b612dd3565b9050808382526020820190508285602086028201111561224757600080fd5b60005b85811015612277578161225d88826122bf565b84526020840193506020830192505060018101905061224a565b5050509392505050565b600061229461228f84612e24565b612dd3565b9050828152602081018484840111156122ac57600080fd5b6122b7848285613039565b509392505050565b6000813590506122ce81613747565b92915050565b600082601f8301126122e557600080fd5b81356122f5848260208601612215565b91505092915050565b60008135905061230d8161375e565b92915050565b60008135905061232281613775565b92915050565b60008151905061233781613775565b92915050565b600082601f83011261234e57600080fd5b813561235e848260208601612281565b91505092915050565b6000813590506123768161378c565b92915050565b60008135905061238b816137a3565b92915050565b6000602082840312156123a357600080fd5b60006123b1848285016122bf565b91505092915050565b600080604083850312156123cd57600080fd5b60006123db858286016122bf565b92505060206123ec858286016122bf565b9150509250929050565b60008060006060848603121561240b57600080fd5b6000612419868287016122bf565b935050602061242a868287016122bf565b925050604061243b86828701612367565b9150509250925092565b6000806000806080858703121561245b57600080fd5b6000612469878288016122bf565b945050602061247a878288016122bf565b935050604061248b87828801612367565b925050606085013567ffffffffffffffff8111156124a857600080fd5b6124b48782880161233d565b91505092959194509250565b600080604083850312156124d357600080fd5b60006124e1858286016122bf565b92505060206124f2858286016122fe565b9150509250929050565b6000806040838503121561250f57600080fd5b600061251d858286016122bf565b925050602061252e85828601612367565b9150509250929050565b6000806040838503121561254b57600080fd5b6000612559858286016122bf565b925050602061256a8582860161237c565b9150509250929050565b60006020828403121561258657600080fd5b600082013567ffffffffffffffff8111156125a057600080fd5b6125ac848285016122d4565b91505092915050565b6000602082840312156125c757600080fd5b60006125d584828501612313565b91505092915050565b6000602082840312156125f057600080fd5b60006125fe84828501612328565b91505092915050565b60006020828403121561261957600080fd5b600061262784828501612367565b91505092915050565b60008060006060848603121561264557600080fd5b600061265386828701612367565b9350506020612664868287016122bf565b92505060406126758682870161237c565b9150509250925092565b6000806040838503121561269257600080fd5b60006126a085828601612367565b92505060206126b185828601612367565b9150509250929050565b6126c481612fad565b82525050565b6126d381612fbf565b82525050565b60006126e482612e55565b6126ee8185612e6b565b93506126fe818560208601613048565b61270781613214565b840191505092915050565b600061271d82612e60565b6127278185612e7c565b9350612737818560208601613048565b61274081613214565b840191505092915050565b600061275682612e60565b6127608185612e8d565b9350612770818560208601613048565b80840191505092915050565b6000612789601a83612e7c565b915061279482613225565b602082019050919050565b60006127ac603283612e7c565b91506127b78261324e565b604082019050919050565b60006127cf602683612e7c565b91506127da8261329d565b604082019050919050565b60006127f2601c83612e7c565b91506127fd826132ec565b602082019050919050565b6000612815602483612e7c565b915061282082613315565b604082019050919050565b6000612838601983612e7c565b915061284382613364565b602082019050919050565b600061285b602c83612e7c565b91506128668261338d565b604082019050919050565b600061287e603883612e7c565b9150612889826133dc565b604082019050919050565b60006128a1602a83612e7c565b91506128ac8261342b565b604082019050919050565b60006128c4602983612e7c565b91506128cf8261347a565b604082019050919050565b60006128e7602083612e7c565b91506128f2826134c9565b602082019050919050565b600061290a602c83612e7c565b9150612915826134f2565b604082019050919050565b600061292d602083612e7c565b915061293882613541565b602082019050919050565b6000612950602983612e7c565b915061295b8261356a565b604082019050919050565b6000612973602f83612e7c565b915061297e826135b9565b604082019050919050565b6000612996602183612e7c565b91506129a182613608565b604082019050919050565b60006129b9603183612e7c565b91506129c482613657565b604082019050919050565b60006129dc601b83612e7c565b91506129e7826136a6565b602082019050919050565b60006129ff602a83612e7c565b9150612a0a826136cf565b604082019050919050565b6000612a22601983612e7c565b9150612a2d8261371e565b602082019050919050565b612a4181613017565b82525050565b6000612a53828561274b565b9150612a5f828461274b565b91508190509392505050565b6000602082019050612a8060008301846126bb565b92915050565b6000608082019050612a9b60008301876126bb565b612aa860208301866126bb565b612ab56040830185612a38565b8181036060830152612ac781846126d9565b905095945050505050565b6000604082019050612ae760008301856126bb565b612af46020830184612a38565b9392505050565b6000602082019050612b1060008301846126ca565b92915050565b60006020820190508181036000830152612b308184612712565b905092915050565b60006020820190508181036000830152612b518161277c565b9050919050565b60006020820190508181036000830152612b718161279f565b9050919050565b60006020820190508181036000830152612b91816127c2565b9050919050565b60006020820190508181036000830152612bb1816127e5565b9050919050565b60006020820190508181036000830152612bd181612808565b9050919050565b60006020820190508181036000830152612bf18161282b565b9050919050565b60006020820190508181036000830152612c118161284e565b9050919050565b60006020820190508181036000830152612c3181612871565b9050919050565b60006020820190508181036000830152612c5181612894565b9050919050565b60006020820190508181036000830152612c71816128b7565b9050919050565b60006020820190508181036000830152612c91816128da565b9050919050565b60006020820190508181036000830152612cb1816128fd565b9050919050565b60006020820190508181036000830152612cd181612920565b9050919050565b60006020820190508181036000830152612cf181612943565b9050919050565b60006020820190508181036000830152612d1181612966565b9050919050565b60006020820190508181036000830152612d3181612989565b9050919050565b60006020820190508181036000830152612d51816129ac565b9050919050565b60006020820190508181036000830152612d71816129cf565b9050919050565b60006020820190508181036000830152612d91816129f2565b9050919050565b60006020820190508181036000830152612db181612a15565b9050919050565b6000602082019050612dcd6000830184612a38565b92915050565b6000612ddd612dee565b9050612de982826130ad565b919050565b6000604051905090565b600067ffffffffffffffff821115612e1357612e126131e5565b5b602082029050602081019050919050565b600067ffffffffffffffff821115612e3f57612e3e6131e5565b5b612e4882613214565b9050602081019050919050565b600081519050919050565b600081519050919050565b600082825260208201905092915050565b600082825260208201905092915050565b600081905092915050565b6000612ea382613017565b9150612eae83613017565b9250827fffffffffffffffffffffffffffffffffffffffffffffffffffffffffffffffff03821115612ee357612ee2613158565b5b828201905092915050565b6000612ef982613017565b9150612f0483613017565b925082612f1457612f13613187565b5b828204905092915050565b6000612f2a82613017565b9150612f3583613017565b9250817fffffffffffffffffffffffffffffffffffffffffffffffffffffffffffffffff0483118215151615612f6e57612f6d613158565b5b828202905092915050565b6000612f8482613017565b9150612f8f83613017565b925082821015612fa257612fa1613158565b5b828203905092915050565b6000612fb882612ff7565b9050919050565b60008115159050919050565b60007fffffffff0000000000000000000000000000000000000000000000000000000082169050919050565b600073ffffffffffffffffffffffffffffffffffffffff82169050919050565b6000819050919050565b60006bffffffffffffffffffffffff82169050919050565b82818337600083830152505050565b60005b8381101561306657808201518184015260208101905061304b565b83811115613075576000848401525b50505050565b6000600282049050600182168061309357607f821691505b602082108114156130a7576130a66131b6565b5b50919050565b6130b682613214565b810181811067ffffffffffffffff821117156130d5576130d46131e5565b5b80604052505050565b60006130e982613017565b91507fffffffffffffffffffffffffffffffffffffffffffffffffffffffffffffffff82141561311c5761311b613158565b5b600182019050919050565b600061313282613017565b915061313d83613017565b92508261314d5761314c613187565b5b828206905092915050565b7f4e487b7100000000000000000000000000000000000000000000000000000000600052601160045260246000fd5b7f4e487b7100000000000000000000000000000000000000000000000000000000600052601260045260246000fd5b7f4e487b7100000000000000000000000000000000000000000000000000000000600052602260045260246000fd5b7f4e487b7100000000000000000000000000000000000000000000000000000000600052604160045260246000fd5b6000601f19601f8301169050919050565b7f45524332393831526f79616c746965733a20546f6f2068696768000000000000600082015250565b7f4552433732313a207472616e7366657220746f206e6f6e20455243373231526560008201527f63656976657220696d706c656d656e7465720000000000000000000000000000602082015250565b7f4f776e61626c653a206e6577206f776e657220697320746865207a65726f206160008201527f6464726573730000000000000000000000000000000000000000000000000000602082015250565b7f4552433732313a20746f6b656e20616c7265616479206d696e74656400000000600082015250565b7f4552433732313a207472616e7366657220746f20746865207a65726f2061646460008201527f7265737300000000000000000000000000000000000000000000000000000000602082015250565b7f4552433732313a20617070726f766520746f2063616c6c657200000000000000600082015250565b7f4552433732313a206f70657261746f7220717565727920666f72206e6f6e657860008201527f697374656e7420746f6b656e0000000000000000000000000000000000000000602082015250565b7f4552433732313a20617070726f76652063616c6c6572206973206e6f74206f7760008201527f6e6572206e6f7220617070726f76656420666f7220616c6c0000000000000000602082015250565b7f4552433732313a2062616c616e636520717565727920666f7220746865207a6560008201527f726f206164647265737300000000000000000000000000000000000000000000602082015250565b7f4552433732313a206f776e657220717565727920666f72206e6f6e657869737460008201527f656e7420746f6b656e0000000000000000000000000000000000000000000000602082015250565b7f4552433732313a206d696e7420746f20746865207a65726f2061646472657373600082015250565b7f4552433732313a20617070726f76656420717565727920666f72206e6f6e657860008201527f697374656e7420746f6b656e0000000000000000000000000000000000000000602082015250565b7f4f776e61626c653a2063616c6c6572206973206e6f7420746865206f776e6572600082015250565b7f4552433732313a207472616e73666572206f6620746f6b656e2074686174206960008201527f73206e6f74206f776e0000000000000000000000000000000000000000000000602082015250565b7f4552433732314d657461646174613a2055524920717565727920666f72206e6f60008201527f6e6578697374656e7420746f6b656e0000000000000000000000000000000000602082015250565b7f4552433732313a20617070726f76616c20746f2063757272656e74206f776e6560008201527f7200000000000000000000000000000000000000000000000000000000000000602082015250565b7f4552433732313a207472616e736665722063616c6c6572206973206e6f74206f60008201527f776e6572206e6f7220617070726f766564000000000000000000000000000000602082015250565b7f455243323938313a20496e76616c696420706172616d65746572730000000000600082015250565b7f455243323938313a20726f79616c7479206665652077696c6c2065786365656460008201527f2073616c65507269636500000000000000000000000000000000000000000000602082015250565b7f455243323938313a20696e76616c696420726563656976657200000000000000600082015250565b61375081612fad565b811461375b57600080fd5b50565b61376781612fbf565b811461377257600080fd5b50565b61377e81612fcb565b811461378957600080fd5b50565b61379581613017565b81146137a057600080fd5b50565b6137ac81613021565b81146137b757600080fd5b5056fea26469706673582212202817810432ae7e64d24c0474267e0da9db48ed06f349052462eb34ff04108f4564736f6c63430008040033",
  "immutableReferences": {},
  "source": "//SPDX-License-Identifier: Unlicense\n// Adapted from https://github.com/dievardump/EIP2981-implementation\n\npragma solidity ^0.8.4;\n\nimport \"./ERC2981.sol\";\nimport \"@openzeppelin/contracts/token/ERC721/ERC721.sol\";\nimport \"@openzeppelin/contracts/access/Ownable.sol\";\nimport \"@openzeppelin/contracts/utils/Counters.sol\";\n\ncontract ERC721ContractWideRoyalties is ERC721, ERC2981, Ownable {\n    /// @notice _tokenIds to keep track of the number of NFTs minted\n    using Counters for Counters.Counter;\n    Counters.Counter private _tokenIds;\n\n    constructor(string memory name_, string memory symbol_)\n        ERC721(name_, symbol_)\n    {}\n\n    /// @inheritdoc ERC165\n    function supportsInterface(bytes4 interfaceId)\n        public\n        view\n        virtual\n        override(ERC721, ERC2981)\n        returns (bool)\n    {\n        return super.supportsInterface(interfaceId);\n    }\n\n    /// @notice Allows to set the royalties on the contract\n    /// @dev This function in a real contract should be protected with a onlyOwner (or equivalent) modifier\n    /// @param recipient the royalties recipient\n    /// @param value royalties value (between 0 and 10000)\n    function setRoyalties(address recipient, uint256 value) public {\n        _setRoyalties(recipient, value);\n    }\n\n    function setDefaultRoyalty(address receiver, uint96 feeNumerator) public {\n        _setDefaultRoyalty(receiver, feeNumerator);\n    }\n\n    function setTokenRoyalty(\n        uint256 tokenId,\n        address receiver,\n        uint96 feeNumerator\n    ) public {\n        _setTokenRoyalty(tokenId, receiver, feeNumerator);\n    }\n\n    /// @notice Mint one token to `to`\n    /// @param to the recipient of the token\n    function mint(address to) external returns (uint256 _tokenId) {\n        uint256 tokenId = _tokenIds.current();\n        _safeMint(to, tokenId, \"\");\n        _tokenIds.increment();\n        return tokenId;\n    }\n\n    /// @notice Mint several tokens at once\n    /// @param recipients an array of recipients for each token\n    function mintBatch(address[] memory recipients) external {\n        uint256 tokenId = _tokenIds.current();\n        for (uint256 i; i < recipients.length; i++) {\n            _safeMint(recipients[i], tokenId, \"\");\n            _tokenIds.increment();\n        }\n    }\n}\n",
  "sourcePath": "/Users/thryec/Desktop/Klaytn/Dev/eip-testing-truffle/contracts/ERC721ContractWideRoyalties.sol",
  "compiler": {
    "name": "solc",
    "version": "0.8.4+commit.c7e474f2.Emscripten.clang"
  },
  "schemaVersion": "3.3.3",
  "updatedAt": "2022-01-14T06:53:20.227Z",
  "networkType": "ethereum",
  "devdoc": {
    "kind": "dev",
    "methods": {
      "approve(address,uint256)": {
        "details": "See {IERC721-approve}."
      },
      "balanceOf(address)": {
        "details": "See {IERC721-balanceOf}."
      },
      "getApproved(uint256)": {
        "details": "See {IERC721-getApproved}."
      },
      "isApprovedForAll(address,address)": {
        "details": "See {IERC721-isApprovedForAll}."
      },
      "mint(address)": {
        "params": {
          "to": "the recipient of the token"
        }
      },
      "mintBatch(address[])": {
        "params": {
          "recipients": "an array of recipients for each token"
        }
      },
      "name()": {
        "details": "See {IERC721Metadata-name}."
      },
      "owner()": {
        "details": "Returns the address of the current owner."
      },
      "ownerOf(uint256)": {
        "details": "See {IERC721-ownerOf}."
      },
      "renounceOwnership()": {
        "details": "Leaves the contract without owner. It will not be possible to call `onlyOwner` functions anymore. Can only be called by the current owner. NOTE: Renouncing ownership will leave the contract without an owner, thereby removing any functionality that is only available to the owner."
      },
      "royaltyInfo(uint256,uint256)": {
        "details": "Called with the sale price to determine how much royalty is owed and to whom.",
        "params": {
          "salePrice": "- the sale price of the NFT asset specified by `tokenId`",
          "tokenId": "- the NFT asset queried for royalty information"
        },
        "returns": {
          "_0": "- address of who should be sent the royalty payment",
          "_1": "- the royalty payment amount for `salePrice`"
        }
      },
      "safeTransferFrom(address,address,uint256)": {
        "details": "See {IERC721-safeTransferFrom}."
      },
      "safeTransferFrom(address,address,uint256,bytes)": {
        "details": "See {IERC721-safeTransferFrom}."
      },
      "setApprovalForAll(address,bool)": {
        "details": "See {IERC721-setApprovalForAll}."
      },
      "setRoyalties(address,uint256)": {
        "details": "This function in a real contract should be protected with a onlyOwner (or equivalent) modifier",
        "params": {
          "recipient": "the royalties recipient",
          "value": "royalties value (between 0 and 10000)"
        }
      },
      "supportsInterface(bytes4)": {
        "details": "See {IERC165-supportsInterface}."
      },
      "symbol()": {
        "details": "See {IERC721Metadata-symbol}."
      },
      "tokenURI(uint256)": {
        "details": "See {IERC721Metadata-tokenURI}."
      },
      "transferFrom(address,address,uint256)": {
        "details": "See {IERC721-transferFrom}."
      },
      "transferOwnership(address)": {
        "details": "Transfers ownership of the contract to a new account (`newOwner`). Can only be called by the current owner."
      }
    },
    "version": 1
  },
  "userdoc": {
    "kind": "user",
    "methods": {
      "mint(address)": {
        "notice": "Mint one token to `to`"
      },
      "mintBatch(address[])": {
        "notice": "Mint several tokens at once"
      },
      "setRoyalties(address,uint256)": {
        "notice": "Allows to set the royalties on the contract"
      }
    },
    "version": 1
  }
}